{
  "contractName": "Evaluator",
  "abi": [
    {
      "inputs": [
        {
          "internalType": "contract ERC20TD",
          "name": "_TDERC20",
          "type": "address"
        },
        {
          "internalType": "contract ERC20Claimable",
          "name": "_claimableERC20",
          "type": "address"
        }
      ],
      "stateMutability": "nonpayable",
      "type": "constructor"
    },
    {
      "anonymous": false,
      "inputs": [
        {
          "indexed": false,
          "internalType": "address",
          "name": "erc20Address",
          "type": "address"
        },
        {
          "indexed": false,
          "internalType": "address",
          "name": "claimableERC20Address",
          "type": "address"
        }
      ],
      "name": "constructedCorrectly",
      "type": "event"
    },
    {
      "anonymous": false,
      "inputs": [
        {
          "indexed": false,
          "internalType": "string",
          "name": "ticker",
          "type": "string"
        },
        {
          "indexed": false,
          "internalType": "uint256",
          "name": "supply",
          "type": "uint256"
        }
      ],
      "name": "newRandomTickerAndSupply",
      "type": "event"
    },
    {
      "stateMutability": "payable",
      "type": "fallback"
    },
    {
      "inputs": [
        {
          "internalType": "address",
          "name": "",
          "type": "address"
        },
        {
          "internalType": "uint256",
          "name": "",
          "type": "uint256"
        }
      ],
      "name": "exerciceProgression",
      "outputs": [
        {
          "internalType": "bool",
          "name": "",
          "type": "bool"
        }
      ],
      "stateMutability": "view",
      "type": "function"
    },
    {
      "inputs": [
        {
          "internalType": "address",
          "name": "",
          "type": "address"
        }
      ],
      "name": "hasBeenPaired",
      "outputs": [
        {
          "internalType": "bool",
          "name": "",
          "type": "bool"
        }
      ],
      "stateMutability": "view",
      "type": "function"
    },
    {
      "inputs": [],
      "name": "nextValueStoreRank",
      "outputs": [
        {
          "internalType": "uint256",
          "name": "",
          "type": "uint256"
        }
      ],
      "stateMutability": "view",
      "type": "function"
    },
    {
      "inputs": [
        {
          "internalType": "address",
          "name": "",
          "type": "address"
        }
      ],
      "name": "studentExerciceSolution",
      "outputs": [
        {
          "internalType": "contract IExerciceSolution",
          "name": "",
          "type": "address"
        }
      ],
      "stateMutability": "view",
      "type": "function"
    },
    {
      "inputs": [
        {
          "internalType": "address",
          "name": "",
          "type": "address"
        }
      ],
      "name": "teachers",
      "outputs": [
        {
          "internalType": "bool",
          "name": "",
          "type": "bool"
        }
      ],
      "stateMutability": "view",
      "type": "function"
    },
    {
      "stateMutability": "payable",
      "type": "receive"
    },
    {
      "inputs": [],
      "name": "ex1_claimedPoints",
      "outputs": [],
      "stateMutability": "nonpayable",
      "type": "function"
    },
    {
      "inputs": [],
      "name": "ex2_claimedFromContract",
      "outputs": [],
      "stateMutability": "nonpayable",
      "type": "function"
    },
    {
      "inputs": [],
      "name": "ex3_withdrawFromContract",
      "outputs": [],
      "stateMutability": "nonpayable",
      "type": "function"
    },
    {
      "inputs": [],
      "name": "ex4_approvedExerciceSolution",
      "outputs": [],
      "stateMutability": "nonpayable",
      "type": "function"
    },
    {
      "inputs": [],
      "name": "ex5_revokedExerciceSolution",
      "outputs": [],
      "stateMutability": "nonpayable",
      "type": "function"
    },
    {
      "inputs": [],
      "name": "ex6_depositTokens",
      "outputs": [],
      "stateMutability": "nonpayable",
      "type": "function"
    },
    {
      "inputs": [],
      "name": "ex7_createERC20",
      "outputs": [],
      "stateMutability": "nonpayable",
      "type": "function"
    },
    {
      "inputs": [],
      "name": "ex8_depositAndMint",
      "outputs": [],
      "stateMutability": "nonpayable",
      "type": "function"
    },
    {
      "inputs": [],
      "name": "ex9_withdrawAndBurn",
      "outputs": [],
      "stateMutability": "nonpayable",
      "type": "function"
    },
    {
      "inputs": [
        {
          "internalType": "contract IExerciceSolution",
          "name": "studentExercice",
          "type": "address"
        }
      ],
      "name": "submitExercice",
      "outputs": [],
      "stateMutability": "nonpayable",
      "type": "function"
    },
    {
      "inputs": [
        {
          "internalType": "bytes32",
          "name": "_bytes32",
          "type": "bytes32"
        }
      ],
      "name": "bytes32ToString",
      "outputs": [
        {
          "internalType": "string",
          "name": "",
          "type": "string"
        }
      ],
      "stateMutability": "pure",
      "type": "function"
    }
  ],
  "bytecode": "0x60806040523480156200001157600080fd5b5060405162005b7b38038062005b7b83398181016040526200003791908101906200016e565b81600160006101000a81548173ffffffffffffffffffffffffffffffffffffffff021916908373ffffffffffffffffffffffffffffffffffffffff16021790555080600260006101000a81548173ffffffffffffffffffffffffffffffffffffffff021916908373ffffffffffffffffffffffffffffffffffffffff1602179055507faec105056259e6e944bb71151b9922f56b566fb88054f082eef397db7ccddf2a600160009054906101000a900473ffffffffffffffffffffffffffffffffffffffff16600260009054906101000a900473ffffffffffffffffffffffffffffffffffffffff1660405162000130929190620001c0565b60405180910390a150506200027d565b600081519050620001518162000249565b92915050565b600081519050620001688162000263565b92915050565b600080604083850312156200018257600080fd5b6000620001928582860162000157565b9250506020620001a58582860162000140565b9150509250929050565b620001ba81620001ed565b82525050565b6000604082019050620001d76000830185620001af565b620001e66020830184620001af565b9392505050565b6000620001fa8262000229565b9050919050565b60006200020e82620001ed565b9050919050565b60006200022282620001ed565b9050919050565b600073ffffffffffffffffffffffffffffffffffffffff82169050919050565b620002548162000201565b81146200026057600080fd5b50565b6200026e8162000215565b81146200027a57600080fd5b50565b6158ee806200028d6000396000f3fe6080604052600436106100f75760003560e01c8063836a10b41161008a578063af6c4d1911610059578063af6c4d19146102ac578063d4878938146102c3578063f0a47f78146102da578063f4fdbb8814610317576100fe565b8063836a10b41461022a5780639201de5514610241578063a38ac0241461027e578063aba62af314610295576100fe565b806339119dce116100c657806339119dce146101ba57806357aecf06146101e55780637a1e55ec146101fc5780637aa1850c14610213576100fe565b80630b961254146101005780631e8a3ae41461013d5780632236d353146101545780632e64c5001461017d576100fe565b366100fe57005b005b34801561010c57600080fd5b5061012760048036036101229190810190614ac4565b610354565b6040516101349190615459565b60405180910390f35b34801561014957600080fd5b50610152610387565b005b34801561016057600080fd5b5061017b60048036036101769190810190614ba4565b610bd0565b005b34801561018957600080fd5b506101a4600480360361019f9190810190614b16565b610e5c565b6040516101b1919061543e565b60405180910390f35b3480156101c657600080fd5b506101cf610e8b565b6040516101dc91906156d6565b60405180910390f35b3480156101f157600080fd5b506101fa610e91565b005b34801561020857600080fd5b506102116118fa565b005b34801561021f57600080fd5b50610228611e96565b005b34801561023657600080fd5b5061023f612917565b005b34801561024d57600080fd5b5061026860048036036102639190810190614b7b565b612c62565b6040516102759190615474565b60405180910390f35b34801561028a57600080fd5b50610293612dbf565b005b3480156102a157600080fd5b506102aa6136ce565b005b3480156102b857600080fd5b506102c1613acb565b005b3480156102cf57600080fd5b506102d8613e16565b005b3480156102e657600080fd5b5061030160048036036102fc9190810190614ac4565b6149f1565b60405161030e919061543e565b60405180910390f35b34801561032357600080fd5b5061033e60048036036103399190810190614ac4565b614a11565b60405161034b919061543e565b60405180910390f35b602d6020528060005260406000206000915054906101000a900473ffffffffffffffffffffffffffffffffffffffff1681565b602c60003373ffffffffffffffffffffffffffffffffffffffff1673ffffffffffffffffffffffffffffffffffffffff168152602001908152602001600020600080815260200190815260200160002060009054906101000a900460ff16610424576040517f08c379a000000000000000000000000000000000000000000000000000000000815260040161041b90615656565b60405180910390fd5b6000600260009054906101000a900473ffffffffffffffffffffffffffffffffffffffff1673ffffffffffffffffffffffffffffffffffffffff166370a08231602d60003373ffffffffffffffffffffffffffffffffffffffff1673ffffffffffffffffffffffffffffffffffffffff16815260200190815260200160002060009054906101000a900473ffffffffffffffffffffffffffffffffffffffff166040518263ffffffff1660e01b81526004016104e0919061533b565b60206040518083038186803b1580156104f857600080fd5b505afa15801561050c573d6000803e3d6000fd5b505050506040513d601f19601f820116820180604052506105309190810190614bcd565b9050602d60003373ffffffffffffffffffffffffffffffffffffffff1673ffffffffffffffffffffffffffffffffffffffff16815260200190815260200160002060009054906101000a900473ffffffffffffffffffffffffffffffffffffffff1673ffffffffffffffffffffffffffffffffffffffff16630e4f7f366040518163ffffffff1660e01b8152600401600060405180830381600087803b1580156105d957600080fd5b505af11580156105ed573d6000803e3d6000fd5b505050506000600260009054906101000a900473ffffffffffffffffffffffffffffffffffffffff1673ffffffffffffffffffffffffffffffffffffffff166370a08231602d60003373ffffffffffffffffffffffffffffffffffffffff1673ffffffffffffffffffffffffffffffffffffffff16815260200190815260200160002060009054906101000a900473ffffffffffffffffffffffffffffffffffffffff166040518263ffffffff1660e01b81526004016106ad919061533b565b60206040518083038186803b1580156106c557600080fd5b505afa1580156106d9573d6000803e3d6000fd5b505050506040513d601f19601f820116820180604052506106fd9190810190614bcd565b9050600260009054906101000a900473ffffffffffffffffffffffffffffffffffffffff1673ffffffffffffffffffffffffffffffffffffffff16630d25320c6040518163ffffffff1660e01b815260040160206040518083038186803b15801561076757600080fd5b505afa15801561077b573d6000803e3d6000fd5b505050506040513d601f19601f8201168201806040525061079f9190810190614bcd565b828203146107e2576040517f08c379a00000000000000000000000000000000000000000000000000000000081526004016107d990615536565b60405180910390fd5b602d60003373ffffffffffffffffffffffffffffffffffffffff1673ffffffffffffffffffffffffffffffffffffffff16815260200190815260200160002060009054906101000a900473ffffffffffffffffffffffffffffffffffffffff1673ffffffffffffffffffffffffffffffffffffffff16630e4f7f366040518163ffffffff1660e01b8152600401600060405180830381600087803b15801561088957600080fd5b505af115801561089d573d6000803e3d6000fd5b50505050600260009054906101000a900473ffffffffffffffffffffffffffffffffffffffff1673ffffffffffffffffffffffffffffffffffffffff16630d25320c6040518163ffffffff1660e01b815260040160206040518083038186803b15801561090957600080fd5b505afa15801561091d573d6000803e3d6000fd5b505050506040513d601f19601f820116820180604052506109419190810190614bcd565b600202602d60003373ffffffffffffffffffffffffffffffffffffffff1673ffffffffffffffffffffffffffffffffffffffff16815260200190815260200160002060009054906101000a900473ffffffffffffffffffffffffffffffffffffffff1673ffffffffffffffffffffffffffffffffffffffff16630776d118306040518263ffffffff1660e01b81526004016109dc9190615356565b602060405180830381600087803b1580156109f657600080fd5b505af1158015610a0a573d6000803e3d6000fd5b505050506040513d601f19601f82011682018060405250610a2e9190810190614bcd565b14610a6e576040517f08c379a0000000000000000000000000000000000000000000000000000000008152600401610a6590615556565b60405180910390fd5b602c60003373ffffffffffffffffffffffffffffffffffffffff1673ffffffffffffffffffffffffffffffffffffffff16815260200190815260200160002060006002815260200190815260200160002060009054906101000a900460ff16610bcc576001602c60003373ffffffffffffffffffffffffffffffffffffffff1673ffffffffffffffffffffffffffffffffffffffff16815260200190815260200160002060006002815260200190815260200160002060006101000a81548160ff021916908315150217905550600160009054906101000a900473ffffffffffffffffffffffffffffffffffffffff1673ffffffffffffffffffffffffffffffffffffffff1663158a49883360026040518363ffffffff1660e01b8152600401610b999291906153ec565b600060405180830381600087803b158015610bb357600080fd5b505af1158015610bc7573d6000803e3d6000fd5b505050505b5050565b602e60008273ffffffffffffffffffffffffffffffffffffffff1673ffffffffffffffffffffffffffffffffffffffff16815260200190815260200160002060009054906101000a900460ff1615610c2757600080fd5b80602d60003373ffffffffffffffffffffffffffffffffffffffff1673ffffffffffffffffffffffffffffffffffffffff16815260200190815260200160002060006101000a81548173ffffffffffffffffffffffffffffffffffffffff021916908373ffffffffffffffffffffffffffffffffffffffff1602179055506001602e60008373ffffffffffffffffffffffffffffffffffffffff1673ffffffffffffffffffffffffffffffffffffffff16815260200190815260200160002060006101000a81548160ff021916908315150217905550602c60003373ffffffffffffffffffffffffffffffffffffffff1673ffffffffffffffffffffffffffffffffffffffff168152602001908152602001600020600080815260200190815260200160002060009054906101000a900460ff16610e59576001602c60003373ffffffffffffffffffffffffffffffffffffffff1673ffffffffffffffffffffffffffffffffffffffff168152602001908152602001600020600080815260200190815260200160002060006101000a81548160ff021916908315150217905550600160009054906101000a900473ffffffffffffffffffffffffffffffffffffffff1673ffffffffffffffffffffffffffffffffffffffff1663158a49883360016040518363ffffffff1660e01b8152600401610e269291906153c3565b600060405180830381600087803b158015610e4057600080fd5b505af1158015610e54573d6000803e3d6000fd5b505050505b50565b602c6020528160005260406000206020528060005260406000206000915091509054906101000a900460ff1681565b602b5481565b602c60003373ffffffffffffffffffffffffffffffffffffffff1673ffffffffffffffffffffffffffffffffffffffff168152602001908152602001600020600080815260200190815260200160002060009054906101000a900460ff16610f2e576040517f08c379a0000000000000000000000000000000000000000000000000000000008152600401610f2590615656565b60405180910390fd5b6000606490506000600260009054906101000a900473ffffffffffffffffffffffffffffffffffffffff1673ffffffffffffffffffffffffffffffffffffffff166370a08231602d60003373ffffffffffffffffffffffffffffffffffffffff1673ffffffffffffffffffffffffffffffffffffffff16815260200190815260200160002060009054906101000a900473ffffffffffffffffffffffffffffffffffffffff166040518263ffffffff1660e01b8152600401610ff0919061533b565b60206040518083038186803b15801561100857600080fd5b505afa15801561101c573d6000803e3d6000fd5b505050506040513d601f19601f820116820180604052506110409190810190614bcd565b90506000600260009054906101000a900473ffffffffffffffffffffffffffffffffffffffff1673ffffffffffffffffffffffffffffffffffffffff166370a08231306040518263ffffffff1660e01b815260040161109f9190615356565b60206040518083038186803b1580156110b757600080fd5b505afa1580156110cb573d6000803e3d6000fd5b505050506040513d601f19601f820116820180604052506110ef9190810190614bcd565b90506000602d60003373ffffffffffffffffffffffffffffffffffffffff1673ffffffffffffffffffffffffffffffffffffffff16815260200190815260200160002060009054906101000a900473ffffffffffffffffffffffffffffffffffffffff1673ffffffffffffffffffffffffffffffffffffffff16630776d118306040518263ffffffff1660e01b815260040161118b9190615356565b602060405180830381600087803b1580156111a557600080fd5b505af11580156111b9573d6000803e3d6000fd5b505050506040513d601f19601f820116820180604052506111dd9190810190614bcd565b905083821015611222576040517f08c379a0000000000000000000000000000000000000000000000000000000008152600401611219906155f6565b60405180910390fd5b600260009054906101000a900473ffffffffffffffffffffffffffffffffffffffff1673ffffffffffffffffffffffffffffffffffffffff166339509351602d60003373ffffffffffffffffffffffffffffffffffffffff1673ffffffffffffffffffffffffffffffffffffffff16815260200190815260200160002060009054906101000a900473ffffffffffffffffffffffffffffffffffffffff16866040518363ffffffff1660e01b81526004016112de929190615415565b602060405180830381600087803b1580156112f857600080fd5b505af115801561130c573d6000803e3d6000fd5b505050506040513d601f19601f820116820180604052506113309190810190614b52565b50602d60003373ffffffffffffffffffffffffffffffffffffffff1673ffffffffffffffffffffffffffffffffffffffff16815260200190815260200160002060009054906101000a900473ffffffffffffffffffffffffffffffffffffffff1673ffffffffffffffffffffffffffffffffffffffff1663dd49756e856040518263ffffffff1660e01b81526004016113c991906156d6565b602060405180830381600087803b1580156113e357600080fd5b505af11580156113f7573d6000803e3d6000fd5b505050506040513d601f19601f8201168201806040525061141b9190810190614bcd565b506000600260009054906101000a900473ffffffffffffffffffffffffffffffffffffffff1673ffffffffffffffffffffffffffffffffffffffff166370a08231602d60003373ffffffffffffffffffffffffffffffffffffffff1673ffffffffffffffffffffffffffffffffffffffff16815260200190815260200160002060009054906101000a900473ffffffffffffffffffffffffffffffffffffffff166040518263ffffffff1660e01b81526004016114d8919061533b565b60206040518083038186803b1580156114f057600080fd5b505afa158015611504573d6000803e3d6000fd5b505050506040513d601f19601f820116820180604052506115289190810190614bcd565b90506000600260009054906101000a900473ffffffffffffffffffffffffffffffffffffffff1673ffffffffffffffffffffffffffffffffffffffff166370a08231306040518263ffffffff1660e01b81526004016115879190615356565b60206040518083038186803b15801561159f57600080fd5b505afa1580156115b3573d6000803e3d6000fd5b505050506040513d601f19601f820116820180604052506115d79190810190614bcd565b90506000602d60003373ffffffffffffffffffffffffffffffffffffffff1673ffffffffffffffffffffffffffffffffffffffff16815260200190815260200160002060009054906101000a900473ffffffffffffffffffffffffffffffffffffffff1673ffffffffffffffffffffffffffffffffffffffff16630776d118306040518263ffffffff1660e01b81526004016116739190615356565b602060405180830381600087803b15801561168d57600080fd5b505af11580156116a1573d6000803e3d6000fd5b505050506040513d601f19601f820116820180604052506116c59190810190614bcd565b9050868684031461170b576040517f08c379a0000000000000000000000000000000000000000000000000000000008152600401611702906154f6565b60405180910390fd5b868286031461174f576040517f08c379a0000000000000000000000000000000000000000000000000000000008152600401611746906154b6565b60405180910390fd5b8684820314611793576040517f08c379a000000000000000000000000000000000000000000000000000000000815260040161178a906156b6565b60405180910390fd5b602c60003373ffffffffffffffffffffffffffffffffffffffff1673ffffffffffffffffffffffffffffffffffffffff16815260200190815260200160002060006006815260200190815260200160002060009054906101000a900460ff166118f1576001602c60003373ffffffffffffffffffffffffffffffffffffffff1673ffffffffffffffffffffffffffffffffffffffff16815260200190815260200160002060006006815260200190815260200160002060006101000a81548160ff021916908315150217905550600160009054906101000a900473ffffffffffffffffffffffffffffffffffffffff1673ffffffffffffffffffffffffffffffffffffffff1663158a49883360026040518363ffffffff1660e01b81526004016118be9291906153ec565b600060405180830381600087803b1580156118d857600080fd5b505af11580156118ec573d6000803e3d6000fd5b505050505b50505050505050565b602c60003373ffffffffffffffffffffffffffffffffffffffff1673ffffffffffffffffffffffffffffffffffffffff168152602001908152602001600020600080815260200190815260200160002060009054906101000a900460ff16611997576040517f08c379a000000000000000000000000000000000000000000000000000000000815260040161198e90615656565b60405180910390fd5b6000602d60003373ffffffffffffffffffffffffffffffffffffffff1673ffffffffffffffffffffffffffffffffffffffff16815260200190815260200160002060009054906101000a900473ffffffffffffffffffffffffffffffffffffffff1673ffffffffffffffffffffffffffffffffffffffff166319fa44cd6040518163ffffffff1660e01b8152600401602060405180830381600087803b158015611a4057600080fd5b505af1158015611a54573d6000803e3d6000fd5b505050506040513d601f19601f82011682018060405250611a789190810190614aed565b905060008190508073ffffffffffffffffffffffffffffffffffffffff1663aa271e1a602d60003373ffffffffffffffffffffffffffffffffffffffff1673ffffffffffffffffffffffffffffffffffffffff16815260200190815260200160002060009054906101000a900473ffffffffffffffffffffffffffffffffffffffff166040518263ffffffff1660e01b8152600401611b17919061533b565b602060405180830381600087803b158015611b3157600080fd5b505af1158015611b45573d6000803e3d6000fd5b505050506040513d601f19601f82011682018060405250611b699190810190614b52565b611ba8576040517f08c379a0000000000000000000000000000000000000000000000000000000008152600401611b9f90615496565b60405180910390fd5b8073ffffffffffffffffffffffffffffffffffffffff1663aa271e1a306040518263ffffffff1660e01b8152600401611be19190615356565b602060405180830381600087803b158015611bfb57600080fd5b505af1158015611c0f573d6000803e3d6000fd5b505050506040513d601f19601f82011682018060405250611c339190810190614b52565b15611c73576040517f08c379a0000000000000000000000000000000000000000000000000000000008152600401611c6a90615516565b60405180910390fd5b60008090508173ffffffffffffffffffffffffffffffffffffffff166340c10f19306127106040518363ffffffff1660e01b8152600401611cb592919061539a565b600060405180830381600087803b158015611ccf57600080fd5b505af1925050508015611ce0575060015b611ced5760009050611cf2565b600190505b8015611d33576040517f08c379a0000000000000000000000000000000000000000000000000000000008152600401611d2a906155d6565b60405180910390fd5b602c60003373ffffffffffffffffffffffffffffffffffffffff1673ffffffffffffffffffffffffffffffffffffffff16815260200190815260200160002060006007815260200190815260200160002060009054906101000a900460ff16611e91576001602c60003373ffffffffffffffffffffffffffffffffffffffff1673ffffffffffffffffffffffffffffffffffffffff16815260200190815260200160002060006007815260200190815260200160002060006101000a81548160ff021916908315150217905550600160009054906101000a900473ffffffffffffffffffffffffffffffffffffffff1673ffffffffffffffffffffffffffffffffffffffff1663158a49883360026040518363ffffffff1660e01b8152600401611e5e9291906153ec565b600060405180830381600087803b158015611e7857600080fd5b505af1158015611e8c573d6000803e3d6000fd5b505050505b505050565b602c60003373ffffffffffffffffffffffffffffffffffffffff1673ffffffffffffffffffffffffffffffffffffffff168152602001908152602001600020600080815260200190815260200160002060009054906101000a900460ff16611f33576040517f08c379a0000000000000000000000000000000000000000000000000000000008152600401611f2a90615656565b60405180910390fd5b6000600260009054906101000a900473ffffffffffffffffffffffffffffffffffffffff1673ffffffffffffffffffffffffffffffffffffffff166370a08231602d60003373ffffffffffffffffffffffffffffffffffffffff1673ffffffffffffffffffffffffffffffffffffffff16815260200190815260200160002060009054906101000a900473ffffffffffffffffffffffffffffffffffffffff166040518263ffffffff1660e01b8152600401611fef919061533b565b60206040518083038186803b15801561200757600080fd5b505afa15801561201b573d6000803e3d6000fd5b505050506040513d601f19601f8201168201806040525061203f9190810190614bcd565b90506000600260009054906101000a900473ffffffffffffffffffffffffffffffffffffffff1673ffffffffffffffffffffffffffffffffffffffff166370a08231306040518263ffffffff1660e01b815260040161209e9190615356565b60206040518083038186803b1580156120b657600080fd5b505afa1580156120ca573d6000803e3d6000fd5b505050506040513d601f19601f820116820180604052506120ee9190810190614bcd565b90506000602d60003373ffffffffffffffffffffffffffffffffffffffff1673ffffffffffffffffffffffffffffffffffffffff16815260200190815260200160002060009054906101000a900473ffffffffffffffffffffffffffffffffffffffff1673ffffffffffffffffffffffffffffffffffffffff166319fa44cd6040518163ffffffff1660e01b8152600401602060405180830381600087803b15801561219957600080fd5b505af11580156121ad573d6000803e3d6000fd5b505050506040513d601f19601f820116820180604052506121d19190810190614aed565b9050600081905060008173ffffffffffffffffffffffffffffffffffffffff166370a08231306040518263ffffffff1660e01b81526004016122139190615356565b60206040518083038186803b15801561222b57600080fd5b505afa15801561223f573d6000803e3d6000fd5b505050506040513d601f19601f820116820180604052506122639190810190614bcd565b905060008273ffffffffffffffffffffffffffffffffffffffff166318160ddd6040518163ffffffff1660e01b815260040160206040518083038186803b1580156122ad57600080fd5b505afa1580156122c1573d6000803e3d6000fd5b505050506040513d601f19601f820116820180604052506122e59190810190614bcd565b9050602d60003373ffffffffffffffffffffffffffffffffffffffff1673ffffffffffffffffffffffffffffffffffffffff16815260200190815260200160002060009054906101000a900473ffffffffffffffffffffffffffffffffffffffff1673ffffffffffffffffffffffffffffffffffffffff1663315a095d836040518263ffffffff1660e01b815260040161237f91906156d6565b602060405180830381600087803b15801561239957600080fd5b505af11580156123ad573d6000803e3d6000fd5b505050506040513d601f19601f820116820180604052506123d19190810190614bcd565b506000600260009054906101000a900473ffffffffffffffffffffffffffffffffffffffff1673ffffffffffffffffffffffffffffffffffffffff166370a08231602d60003373ffffffffffffffffffffffffffffffffffffffff1673ffffffffffffffffffffffffffffffffffffffff16815260200190815260200160002060009054906101000a900473ffffffffffffffffffffffffffffffffffffffff166040518263ffffffff1660e01b815260040161248e919061533b565b60206040518083038186803b1580156124a657600080fd5b505afa1580156124ba573d6000803e3d6000fd5b505050506040513d601f19601f820116820180604052506124de9190810190614bcd565b90506000600260009054906101000a900473ffffffffffffffffffffffffffffffffffffffff1673ffffffffffffffffffffffffffffffffffffffff166370a08231306040518263ffffffff1660e01b815260040161253d9190615356565b60206040518083038186803b15801561255557600080fd5b505afa158015612569573d6000803e3d6000fd5b505050506040513d601f19601f8201168201806040525061258d9190810190614bcd565b905060008573ffffffffffffffffffffffffffffffffffffffff166370a08231306040518263ffffffff1660e01b81526004016125ca9190615356565b60206040518083038186803b1580156125e257600080fd5b505afa1580156125f6573d6000803e3d6000fd5b505050506040513d601f19601f8201168201806040525061261a9190810190614bcd565b905060008673ffffffffffffffffffffffffffffffffffffffff166318160ddd6040518163ffffffff1660e01b815260040160206040518083038186803b15801561266457600080fd5b505afa158015612678573d6000803e3d6000fd5b505050506040513d601f19601f8201168201806040525061269c9190810190614bcd565b905085848b03146126e2576040517f08c379a00000000000000000000000000000000000000000000000000000000081526004016126d9906154f6565b60405180910390fd5b8589840314612726576040517f08c379a000000000000000000000000000000000000000000000000000000000815260040161271d906154b6565b60405180910390fd5b60008214612769576040517f08c379a000000000000000000000000000000000000000000000000000000000815260040161276090615676565b60405180910390fd5b85818603146127ad576040517f08c379a00000000000000000000000000000000000000000000000000000000081526004016127a4906154d6565b60405180910390fd5b602c60003373ffffffffffffffffffffffffffffffffffffffff1673ffffffffffffffffffffffffffffffffffffffff16815260200190815260200160002060006009815260200190815260200160002060009054906101000a900460ff1661290b576001602c60003373ffffffffffffffffffffffffffffffffffffffff1673ffffffffffffffffffffffffffffffffffffffff16815260200190815260200160002060006009815260200190815260200160002060006101000a81548160ff021916908315150217905550600160009054906101000a900473ffffffffffffffffffffffffffffffffffffffff1673ffffffffffffffffffffffffffffffffffffffff1663158a49883360026040518363ffffffff1660e01b81526004016128d89291906153ec565b600060405180830381600087803b1580156128f257600080fd5b505af1158015612906573d6000803e3d6000fd5b505050505b50505050505050505050565b602c60003373ffffffffffffffffffffffffffffffffffffffff1673ffffffffffffffffffffffffffffffffffffffff168152602001908152602001600020600080815260200190815260200160002060009054906101000a900460ff166129b4576040517f08c379a00000000000000000000000000000000000000000000000000000000081526004016129ab90615656565b60405180910390fd5b6000600260009054906101000a900473ffffffffffffffffffffffffffffffffffffffff1673ffffffffffffffffffffffffffffffffffffffff1663dd62ed3e33602d60003373ffffffffffffffffffffffffffffffffffffffff1673ffffffffffffffffffffffffffffffffffffffff16815260200190815260200160002060009054906101000a900473ffffffffffffffffffffffffffffffffffffffff166040518363ffffffff1660e01b8152600401612a72929190615371565b60206040518083038186803b158015612a8a57600080fd5b505afa158015612a9e573d6000803e3d6000fd5b505050506040513d601f19601f82011682018060405250612ac29190810190614bcd565b14612b02576040517f08c379a0000000000000000000000000000000000000000000000000000000008152600401612af990615596565b60405180910390fd5b602c60003373ffffffffffffffffffffffffffffffffffffffff1673ffffffffffffffffffffffffffffffffffffffff16815260200190815260200160002060006005815260200190815260200160002060009054906101000a900460ff16612c60576001602c60003373ffffffffffffffffffffffffffffffffffffffff1673ffffffffffffffffffffffffffffffffffffffff16815260200190815260200160002060006005815260200190815260200160002060006101000a81548160ff021916908315150217905550600160009054906101000a900473ffffffffffffffffffffffffffffffffffffffff1673ffffffffffffffffffffffffffffffffffffffff1663158a49883360016040518363ffffffff1660e01b8152600401612c2d9291906153c3565b600060405180830381600087803b158015612c4757600080fd5b505af1158015612c5b573d6000803e3d6000fd5b505050505b565b606060008090505b60208160ff16108015612cb55750600060f81b838260ff1660208110612c8c57fe5b1a60f81b7effffffffffffffffffffffffffffffffffffffffffffffffffffffffffffff191614155b15612cc7578080600101915050612c6a565b60608160ff166040519080825280601f01601f191660200182016040528015612cff5781602001600182028038833980820191505090505b509050600091505b60208260ff16108015612d525750600060f81b848360ff1660208110612d2957fe5b1a60f81b7effffffffffffffffffffffffffffffffffffffffffffffffffffffffffffff191614155b15612db557838260ff1660208110612d6657fe5b1a60f81b818360ff1681518110612d7957fe5b60200101907effffffffffffffffffffffffffffffffffffffffffffffffffffffffffffff1916908160001a9053508180600101925050612d07565b8092505050919050565b602c60003373ffffffffffffffffffffffffffffffffffffffff1673ffffffffffffffffffffffffffffffffffffffff168152602001908152602001600020600080815260200190815260200160002060009054906101000a900460ff16612e5c576040517f08c379a0000000000000000000000000000000000000000000000000000000008152600401612e5390615656565b60405180910390fd5b6000600260009054906101000a900473ffffffffffffffffffffffffffffffffffffffff1673ffffffffffffffffffffffffffffffffffffffff166370a08231602d60003373ffffffffffffffffffffffffffffffffffffffff1673ffffffffffffffffffffffffffffffffffffffff16815260200190815260200160002060009054906101000a900473ffffffffffffffffffffffffffffffffffffffff166040518263ffffffff1660e01b8152600401612f18919061533b565b60206040518083038186803b158015612f3057600080fd5b505afa158015612f44573d6000803e3d6000fd5b505050506040513d601f19601f82011682018060405250612f689190810190614bcd565b90506000600260009054906101000a900473ffffffffffffffffffffffffffffffffffffffff1673ffffffffffffffffffffffffffffffffffffffff166370a08231306040518263ffffffff1660e01b8152600401612fc79190615356565b60206040518083038186803b158015612fdf57600080fd5b505afa158015612ff3573d6000803e3d6000fd5b505050506040513d601f19601f820116820180604052506130179190810190614bcd565b90506000602d60003373ffffffffffffffffffffffffffffffffffffffff1673ffffffffffffffffffffffffffffffffffffffff16815260200190815260200160002060009054906101000a900473ffffffffffffffffffffffffffffffffffffffff1673ffffffffffffffffffffffffffffffffffffffff16630776d118306040518263ffffffff1660e01b81526004016130b39190615356565b602060405180830381600087803b1580156130cd57600080fd5b505af11580156130e1573d6000803e3d6000fd5b505050506040513d601f19601f820116820180604052506131059190810190614bcd565b9050602d60003373ffffffffffffffffffffffffffffffffffffffff1673ffffffffffffffffffffffffffffffffffffffff16815260200190815260200160002060009054906101000a900473ffffffffffffffffffffffffffffffffffffffff1673ffffffffffffffffffffffffffffffffffffffff1663315a095d826040518263ffffffff1660e01b815260040161319f91906156d6565b602060405180830381600087803b1580156131b957600080fd5b505af11580156131cd573d6000803e3d6000fd5b505050506040513d601f19601f820116820180604052506131f19190810190614bcd565b506000600260009054906101000a900473ffffffffffffffffffffffffffffffffffffffff1673ffffffffffffffffffffffffffffffffffffffff166370a08231602d60003373ffffffffffffffffffffffffffffffffffffffff1673ffffffffffffffffffffffffffffffffffffffff16815260200190815260200160002060009054906101000a900473ffffffffffffffffffffffffffffffffffffffff166040518263ffffffff1660e01b81526004016132ae919061533b565b60206040518083038186803b1580156132c657600080fd5b505afa1580156132da573d6000803e3d6000fd5b505050506040513d601f19601f820116820180604052506132fe9190810190614bcd565b90506000600260009054906101000a900473ffffffffffffffffffffffffffffffffffffffff1673ffffffffffffffffffffffffffffffffffffffff166370a08231306040518263ffffffff1660e01b815260040161335d9190615356565b60206040518083038186803b15801561337557600080fd5b505afa158015613389573d6000803e3d6000fd5b505050506040513d601f19601f820116820180604052506133ad9190810190614bcd565b90506000602d60003373ffffffffffffffffffffffffffffffffffffffff1673ffffffffffffffffffffffffffffffffffffffff16815260200190815260200160002060009054906101000a900473ffffffffffffffffffffffffffffffffffffffff1673ffffffffffffffffffffffffffffffffffffffff16630776d118306040518263ffffffff1660e01b81526004016134499190615356565b602060405180830381600087803b15801561346357600080fd5b505af1158015613477573d6000803e3d6000fd5b505050506040513d601f19601f8201168201806040525061349b9190810190614bcd565b905083838703146134e1576040517f08c379a00000000000000000000000000000000000000000000000000000000081526004016134d8906154f6565b60405180910390fd5b8385830314613525576040517f08c379a000000000000000000000000000000000000000000000000000000000815260040161351c906154b6565b60405180910390fd5b60008114613568576040517f08c379a000000000000000000000000000000000000000000000000000000000815260040161355f90615576565b60405180910390fd5b602c60003373ffffffffffffffffffffffffffffffffffffffff1673ffffffffffffffffffffffffffffffffffffffff16815260200190815260200160002060006003815260200190815260200160002060009054906101000a900460ff166136c6576001602c60003373ffffffffffffffffffffffffffffffffffffffff1673ffffffffffffffffffffffffffffffffffffffff16815260200190815260200160002060006003815260200190815260200160002060006101000a81548160ff021916908315150217905550600160009054906101000a900473ffffffffffffffffffffffffffffffffffffffff1673ffffffffffffffffffffffffffffffffffffffff1663158a49883360026040518363ffffffff1660e01b81526004016136939291906153ec565b600060405180830381600087803b1580156136ad57600080fd5b505af11580156136c1573d6000803e3d6000fd5b505050505b505050505050565b6000600260009054906101000a900473ffffffffffffffffffffffffffffffffffffffff1673ffffffffffffffffffffffffffffffffffffffff166370a08231336040518263ffffffff1660e01b815260040161372b9190615356565b60206040518083038186803b15801561374357600080fd5b505afa158015613757573d6000803e3d6000fd5b505050506040513d601f19601f8201168201806040525061377b9190810190614bcd565b116137bb576040517f08c379a00000000000000000000000000000000000000000000000000000000081526004016137b290615616565b60405180910390fd5b602c60003373ffffffffffffffffffffffffffffffffffffffff1673ffffffffffffffffffffffffffffffffffffffff16815260200190815260200160002060006001815260200190815260200160002060009054906101000a900460ff16613ac9576001602c60003373ffffffffffffffffffffffffffffffffffffffff1673ffffffffffffffffffffffffffffffffffffffff16815260200190815260200160002060006001815260200190815260200160002060006101000a81548160ff021916908315150217905550600160009054906101000a900473ffffffffffffffffffffffffffffffffffffffff1673ffffffffffffffffffffffffffffffffffffffff1663158a49883360016040518363ffffffff1660e01b81526004016138e69291906153c3565b600060405180830381600087803b15801561390057600080fd5b505af1158015613914573d6000803e3d6000fd5b50505050600160009054906101000a900473ffffffffffffffffffffffffffffffffffffffff1673ffffffffffffffffffffffffffffffffffffffff1663158a49883360016040518363ffffffff1660e01b81526004016139769291906153c3565b600060405180830381600087803b15801561399057600080fd5b505af11580156139a4573d6000803e3d6000fd5b50505050600160009054906101000a900473ffffffffffffffffffffffffffffffffffffffff1673ffffffffffffffffffffffffffffffffffffffff1663158a49883360016040518363ffffffff1660e01b8152600401613a069291906153c3565b600060405180830381600087803b158015613a2057600080fd5b505af1158015613a34573d6000803e3d6000fd5b50505050600160009054906101000a900473ffffffffffffffffffffffffffffffffffffffff1673ffffffffffffffffffffffffffffffffffffffff1663158a49883360026040518363ffffffff1660e01b8152600401613a969291906153ec565b600060405180830381600087803b158015613ab057600080fd5b505af1158015613ac4573d6000803e3d6000fd5b505050505b565b602c60003373ffffffffffffffffffffffffffffffffffffffff1673ffffffffffffffffffffffffffffffffffffffff168152602001908152602001600020600080815260200190815260200160002060009054906101000a900460ff16613b68576040517f08c379a0000000000000000000000000000000000000000000000000000000008152600401613b5f90615656565b60405180910390fd5b6000600260009054906101000a900473ffffffffffffffffffffffffffffffffffffffff1673ffffffffffffffffffffffffffffffffffffffff1663dd62ed3e33602d60003373ffffffffffffffffffffffffffffffffffffffff1673ffffffffffffffffffffffffffffffffffffffff16815260200190815260200160002060009054906101000a900473ffffffffffffffffffffffffffffffffffffffff166040518363ffffffff1660e01b8152600401613c26929190615371565b60206040518083038186803b158015613c3e57600080fd5b505afa158015613c52573d6000803e3d6000fd5b505050506040513d601f19601f82011682018060405250613c769190810190614bcd565b11613cb6576040517f08c379a0000000000000000000000000000000000000000000000000000000008152600401613cad90615636565b60405180910390fd5b602c60003373ffffffffffffffffffffffffffffffffffffffff1673ffffffffffffffffffffffffffffffffffffffff16815260200190815260200160002060006004815260200190815260200160002060009054906101000a900460ff16613e14576001602c60003373ffffffffffffffffffffffffffffffffffffffff1673ffffffffffffffffffffffffffffffffffffffff16815260200190815260200160002060006004815260200190815260200160002060006101000a81548160ff021916908315150217905550600160009054906101000a900473ffffffffffffffffffffffffffffffffffffffff1673ffffffffffffffffffffffffffffffffffffffff1663158a49883360016040518363ffffffff1660e01b8152600401613de19291906153c3565b600060405180830381600087803b158015613dfb57600080fd5b505af1158015613e0f573d6000803e3d6000fd5b505050505b565b602c60003373ffffffffffffffffffffffffffffffffffffffff1673ffffffffffffffffffffffffffffffffffffffff168152602001908152602001600020600080815260200190815260200160002060009054906101000a900460ff16613eb3576040517f08c379a0000000000000000000000000000000000000000000000000000000008152600401613eaa90615656565b60405180910390fd5b6000606490506000600260009054906101000a900473ffffffffffffffffffffffffffffffffffffffff1673ffffffffffffffffffffffffffffffffffffffff166370a08231602d60003373ffffffffffffffffffffffffffffffffffffffff1673ffffffffffffffffffffffffffffffffffffffff16815260200190815260200160002060009054906101000a900473ffffffffffffffffffffffffffffffffffffffff166040518263ffffffff1660e01b8152600401613f75919061533b565b60206040518083038186803b158015613f8d57600080fd5b505afa158015613fa1573d6000803e3d6000fd5b505050506040513d601f19601f82011682018060405250613fc59190810190614bcd565b90506000600260009054906101000a900473ffffffffffffffffffffffffffffffffffffffff1673ffffffffffffffffffffffffffffffffffffffff166370a08231306040518263ffffffff1660e01b81526004016140249190615356565b60206040518083038186803b15801561403c57600080fd5b505afa158015614050573d6000803e3d6000fd5b505050506040513d601f19601f820116820180604052506140749190810190614bcd565b90506000602d60003373ffffffffffffffffffffffffffffffffffffffff1673ffffffffffffffffffffffffffffffffffffffff16815260200190815260200160002060009054906101000a900473ffffffffffffffffffffffffffffffffffffffff1673ffffffffffffffffffffffffffffffffffffffff166319fa44cd6040518163ffffffff1660e01b8152600401602060405180830381600087803b15801561411f57600080fd5b505af1158015614133573d6000803e3d6000fd5b505050506040513d601f19601f820116820180604052506141579190810190614aed565b9050600081905060008173ffffffffffffffffffffffffffffffffffffffff166370a08231306040518263ffffffff1660e01b81526004016141999190615356565b60206040518083038186803b1580156141b157600080fd5b505afa1580156141c5573d6000803e3d6000fd5b505050506040513d601f19601f820116820180604052506141e99190810190614bcd565b905060008273ffffffffffffffffffffffffffffffffffffffff166318160ddd6040518163ffffffff1660e01b815260040160206040518083038186803b15801561423357600080fd5b505afa158015614247573d6000803e3d6000fd5b505050506040513d601f19601f8201168201806040525061426b9190810190614bcd565b9050868510156142b0576040517f08c379a00000000000000000000000000000000000000000000000000000000081526004016142a7906155f6565b60405180910390fd5b600260009054906101000a900473ffffffffffffffffffffffffffffffffffffffff1673ffffffffffffffffffffffffffffffffffffffff166339509351602d60003373ffffffffffffffffffffffffffffffffffffffff1673ffffffffffffffffffffffffffffffffffffffff16815260200190815260200160002060009054906101000a900473ffffffffffffffffffffffffffffffffffffffff16896040518363ffffffff1660e01b815260040161436c929190615415565b602060405180830381600087803b15801561438657600080fd5b505af115801561439a573d6000803e3d6000fd5b505050506040513d601f19601f820116820180604052506143be9190810190614b52565b50602d60003373ffffffffffffffffffffffffffffffffffffffff1673ffffffffffffffffffffffffffffffffffffffff16815260200190815260200160002060009054906101000a900473ffffffffffffffffffffffffffffffffffffffff1673ffffffffffffffffffffffffffffffffffffffff1663dd49756e886040518263ffffffff1660e01b815260040161445791906156d6565b602060405180830381600087803b15801561447157600080fd5b505af1158015614485573d6000803e3d6000fd5b505050506040513d601f19601f820116820180604052506144a99190810190614bcd565b506000600260009054906101000a900473ffffffffffffffffffffffffffffffffffffffff1673ffffffffffffffffffffffffffffffffffffffff166370a08231602d60003373ffffffffffffffffffffffffffffffffffffffff1673ffffffffffffffffffffffffffffffffffffffff16815260200190815260200160002060009054906101000a900473ffffffffffffffffffffffffffffffffffffffff166040518263ffffffff1660e01b8152600401614566919061533b565b60206040518083038186803b15801561457e57600080fd5b505afa158015614592573d6000803e3d6000fd5b505050506040513d601f19601f820116820180604052506145b69190810190614bcd565b90506000600260009054906101000a900473ffffffffffffffffffffffffffffffffffffffff1673ffffffffffffffffffffffffffffffffffffffff166370a08231306040518263ffffffff1660e01b81526004016146159190615356565b60206040518083038186803b15801561462d57600080fd5b505afa158015614641573d6000803e3d6000fd5b505050506040513d601f19601f820116820180604052506146659190810190614bcd565b905060008573ffffffffffffffffffffffffffffffffffffffff166370a08231306040518263ffffffff1660e01b81526004016146a29190615356565b60206040518083038186803b1580156146ba57600080fd5b505afa1580156146ce573d6000803e3d6000fd5b505050506040513d601f19601f820116820180604052506146f29190810190614bcd565b905060008673ffffffffffffffffffffffffffffffffffffffff166318160ddd6040518163ffffffff1660e01b815260040160206040518083038186803b15801561473c57600080fd5b505afa158015614750573d6000803e3d6000fd5b505050506040513d601f19601f820116820180604052506147749190810190614bcd565b90508a8a8503146147ba576040517f08c379a00000000000000000000000000000000000000000000000000000000081526004016147b1906154f6565b60405180910390fd5b8a838a03146147fe576040517f08c379a00000000000000000000000000000000000000000000000000000000081526004016147f5906154b6565b60405180910390fd5b8a86830314614842576040517f08c379a0000000000000000000000000000000000000000000000000000000008152600401614839906155b6565b60405180910390fd5b8a85820314614886576040517f08c379a000000000000000000000000000000000000000000000000000000000815260040161487d90615696565b60405180910390fd5b602c60003373ffffffffffffffffffffffffffffffffffffffff1673ffffffffffffffffffffffffffffffffffffffff16815260200190815260200160002060006008815260200190815260200160002060009054906101000a900460ff166149e4576001602c60003373ffffffffffffffffffffffffffffffffffffffff1673ffffffffffffffffffffffffffffffffffffffff16815260200190815260200160002060006008815260200190815260200160002060006101000a81548160ff021916908315150217905550600160009054906101000a900473ffffffffffffffffffffffffffffffffffffffff1673ffffffffffffffffffffffffffffffffffffffff1663158a49883360026040518363ffffffff1660e01b81526004016149b19291906153ec565b600060405180830381600087803b1580156149cb57600080fd5b505af11580156149df573d6000803e3d6000fd5b505050505b5050505050505050505050565b60006020528060005260406000206000915054906101000a900460ff1681565b602e6020528060005260406000206000915054906101000a900460ff1681565b600081359050614a4081615845565b92915050565b600081519050614a5581615845565b92915050565b600081519050614a6a8161585c565b92915050565b600081359050614a7f81615873565b92915050565b600081359050614a948161588a565b92915050565b600081359050614aa9816158a1565b92915050565b600081519050614abe816158a1565b92915050565b600060208284031215614ad657600080fd5b6000614ae484828501614a31565b91505092915050565b600060208284031215614aff57600080fd5b6000614b0d84828501614a46565b91505092915050565b60008060408385031215614b2957600080fd5b6000614b3785828601614a31565b9250506020614b4885828601614a9a565b9150509250929050565b600060208284031215614b6457600080fd5b6000614b7284828501614a5b565b91505092915050565b600060208284031215614b8d57600080fd5b6000614b9b84828501614a70565b91505092915050565b600060208284031215614bb657600080fd5b6000614bc484828501614a85565b91505092915050565b600060208284031215614bdf57600080fd5b6000614bed84828501614aaf565b91505092915050565b614bff81615771565b82525050565b614c0e8161570d565b82525050565b614c1d8161571f565b82525050565b614c2c81615783565b82525050565b614c3b816157a7565b82525050565b614c4a816157b9565b82525050565b614c59816157cb565b82525050565b6000614c6a826156f1565b614c7481856156fc565b9350614c84818560208601615801565b614c8d81615834565b840191505092915050565b6000614ca5601e836156fc565b91507f4578657263696365536f6c7574696f6e206973206e6f74206d696e74657200006000830152602082019050919050565b6000614ce5602b836156fc565b91507f4576616c7561746f722068617320616e20696e636f727265637420616d6f756e60008301527f74206f6620746f6b656e730000000000000000000000000000000000000000006020830152604082019050919050565b6000614d4b602f836156fc565b91507f4578657263696365536f6c7574696f6e45726332302077657265206e6f74206260008301527f75726e656420636f72726563746c7900000000000000000000000000000000006020830152604082019050919050565b6000614db16032836156fc565b91507f4578657263696365536f6c7574696f6e2068617320616e20696e636f7272656360008301527f7420616d6f756e74206f6620746f6b656e7300000000000000000000000000006020830152604082019050919050565b6000614e176013836156fc565b91507f4576616c7561746f72206973206d696e746572000000000000000000000000006000830152602082019050919050565b6000614e57602e836156fc565b91507f4e6f20636c61696d61626c6520746f6b656e73206d696e74656420746f20457860008301527f657263696365536f6c7574696f6e0000000000000000000000000000000000006020830152604082019050919050565b6000614ebd602e836156fc565b91507f42616c616e6365206f662073656e646572206e6f74206b65707420696e20457860008301527f657263696365536f6c7574696f6e0000000000000000000000000000000000006020830152604082019050919050565b6000614f236024836156fc565b91507f546f6b656e73206c6566742068656c64206279204578657263696365536f6c7560008301527f74696f6e000000000000000000000000000000000000000000000000000000006020830152604082019050919050565b6000614f896039836156fc565b91507f4578657263696365536f6c7574696f6e207374696c6c20616c6c6f776564207460008301527f6f207370656e64206d73672e73656e64657220746f6b656e73000000000000006020830152604082019050919050565b6000614fef6044836156fc565b91507f42616c616e6365206f66204576616c7561746f72206e6f74206372656469746560008301527f6420636f72726563746c7920696e204578657263696365536f6c7574696f6e4560208301527f72633230000000000000000000000000000000000000000000000000000000006040830152606082019050919050565b600061507b601a836156fc565b91507f4576616c7561746f72207761732061626c6520746f206d696e740000000000006000830152602082019050919050565b60006150bb6025836156fc565b91507f4576616c7561746f7220646f6573206e6f7420686f6c6420656e6f756768207460008301527f6f6b656e730000000000000000000000000000000000000000000000000000006020830152604082019050919050565b60006151216014836156fc565b91507f53656e64657220686173206e6f20746f6b656e730000000000000000000000006000830152602082019050919050565b60006151616036836156fc565b91507f4578657263696365536f6c7574696f6e206e6f20616c6c6f77656420746f207360008301527f70656e64206d73672e73656e64657220746f6b656e73000000000000000000006020830152604082019050919050565b60006151c76015836156fc565b91507f4e6f20736f6c7574696f6e207375626d697474656400000000000000000000006000830152602082019050919050565b6000615207602b836156fc565b91507f546f6b656e73207374696c6c206372656469746564204578657263696365536f60008301527f6c7574696f6e45726332300000000000000000000000000000000000000000006020830152604082019050919050565b600061526d602f836156fc565b91507f4578657263696365536f6c7574696f6e45726332302077657265206e6f74206d60008301527f696e74656420636f72726563746c7900000000000000000000000000000000006020830152604082019050919050565b60006152d3603f836156fc565b91507f42616c616e6365206f66204576616c7561746f72206e6f74206372656469746560008301527f6420636f72726563746c7920696e204578657263696365536f6c7574696f6e006020830152604082019050919050565b61533581615767565b82525050565b60006020820190506153506000830184614c05565b92915050565b600060208201905061536b6000830184614bf6565b92915050565b60006040820190506153866000830185614bf6565b6153936020830184614c05565b9392505050565b60006040820190506153af6000830185614bf6565b6153bc6020830184614c32565b9392505050565b60006040820190506153d86000830185614bf6565b6153e56020830184614c41565b9392505050565b60006040820190506154016000830185614bf6565b61540e6020830184614c50565b9392505050565b600060408201905061542a6000830185614c05565b615437602083018461532c565b9392505050565b60006020820190506154536000830184614c14565b92915050565b600060208201905061546e6000830184614c23565b92915050565b6000602082019050818103600083015261548e8184614c5f565b905092915050565b600060208201905081810360008301526154af81614c98565b9050919050565b600060208201905081810360008301526154cf81614cd8565b9050919050565b600060208201905081810360008301526154ef81614d3e565b9050919050565b6000602082019050818103600083015261550f81614da4565b9050919050565b6000602082019050818103600083015261552f81614e0a565b9050919050565b6000602082019050818103600083015261554f81614e4a565b9050919050565b6000602082019050818103600083015261556f81614eb0565b9050919050565b6000602082019050818103600083015261558f81614f16565b9050919050565b600060208201905081810360008301526155af81614f7c565b9050919050565b600060208201905081810360008301526155cf81614fe2565b9050919050565b600060208201905081810360008301526155ef8161506e565b9050919050565b6000602082019050818103600083015261560f816150ae565b9050919050565b6000602082019050818103600083015261562f81615114565b9050919050565b6000602082019050818103600083015261564f81615154565b9050919050565b6000602082019050818103600083015261566f816151ba565b9050919050565b6000602082019050818103600083015261568f816151fa565b9050919050565b600060208201905081810360008301526156af81615260565b9050919050565b600060208201905081810360008301526156cf816152c6565b9050919050565b60006020820190506156eb600083018461532c565b92915050565b600081519050919050565b600082825260208201905092915050565b600061571882615747565b9050919050565b60008115159050919050565b6000819050919050565b60006157408261570d565b9050919050565b600073ffffffffffffffffffffffffffffffffffffffff82169050919050565b6000819050919050565b600061577c826157dd565b9050919050565b600061578e82615795565b9050919050565b60006157a082615747565b9050919050565b60006157b282615767565b9050919050565b60006157c482615767565b9050919050565b60006157d682615767565b9050919050565b60006157e8826157ef565b9050919050565b60006157fa82615747565b9050919050565b60005b8381101561581f578082015181840152602081019050615804565b8381111561582e576000848401525b50505050565b6000601f19601f8301169050919050565b61584e8161570d565b811461585957600080fd5b50565b6158658161571f565b811461587057600080fd5b50565b61587c8161572b565b811461588757600080fd5b50565b61589381615735565b811461589e57600080fd5b50565b6158aa81615767565b81146158b557600080fd5b5056fea264697066735822122095f3a5757c5ed9a7418cdc73eb4f1becd14476c420ce0be1d3fa2ae64c00658864736f6c63430006020033",
  "source": "pragma solidity ^0.6.0;\npragma experimental ABIEncoderV2;\n\nimport \"./ERC20TD.sol\";\nimport \"./ERC20Claimable.sol\";\nimport \"./IExerciceSolution.sol\";\nimport \"./IERC20Mintable.sol\";\n\ncontract Evaluator \n{\n\n\tmapping(address => bool) public teachers;\n\tERC20TD TDERC20;\n\tERC20Claimable claimableERC20;\n\n\tuint256[20] private randomSupplies;\n\tstring[20] private randomTickers;\n \tuint public nextValueStoreRank;\n\n\n \tmapping(address => mapping(uint256 => bool)) public exerciceProgression;\n \tmapping(address => IExerciceSolution) public studentExerciceSolution;\n \tmapping(address => bool) public hasBeenPaired;\n\n \tevent newRandomTickerAndSupply(string ticker, uint256 supply);\n \tevent constructedCorrectly(address erc20Address, address claimableERC20Address);\n\tconstructor(ERC20TD _TDERC20, ERC20Claimable _claimableERC20) \n\tpublic \n\t{\n\t\tTDERC20 = _TDERC20;\n\t\tclaimableERC20 = _claimableERC20;\n\t\temit constructedCorrectly(address(TDERC20), address(claimableERC20));\n\t}\n\n\tfallback () external payable \n\t{}\n\n\treceive () external payable \n\t{}\n\n\tfunction ex1_claimedPoints()\n\tpublic\n\t{\n\t\t// Check the user has some tokens\n\t\trequire(claimableERC20.balanceOf(msg.sender) > 0, \"Sender has no tokens\");\n\n\t\t// Crediting points\n\t\tif (!exerciceProgression[msg.sender][1])\n\t\t{\n\t\t\texerciceProgression[msg.sender][1] = true;\n\t\t\tTDERC20.distributeTokens(msg.sender, 1);\n\t\t\tTDERC20.distributeTokens(msg.sender, 1);\n\t\t\tTDERC20.distributeTokens(msg.sender, 1);\n\t\t\tTDERC20.distributeTokens(msg.sender, 2);\n\t\t}\n\t}\n\n\tfunction ex2_claimedFromContract()\n\tpublic\n\t{\n\t\t// Checking a solution was submitted\n\t\trequire(exerciceProgression[msg.sender][0], \"No solution submitted\");\n\n\t\t// Checking how many tokens ExerciceSolution holds\n\t\tuint256 solutionInitBalance = claimableERC20.balanceOf(address(studentExerciceSolution[msg.sender]));\n\n\t\t// Claiming tokens through ExerciceSolution\n\t\tstudentExerciceSolution[msg.sender].claimTokensOnBehalf();\n\n\t\t// Verifying ExerciceSolution holds tokens\n\t\tuint256 solutionEndBalance = claimableERC20.balanceOf(address(studentExerciceSolution[msg.sender]));\n\t\trequire(solutionEndBalance - solutionInitBalance == claimableERC20.distributedAmount(), \"No claimable tokens minted to ExerciceSolution\");\n\n\t\t// Verifying ExerciceSolution kept track of our balance\n\t\tstudentExerciceSolution[msg.sender].claimTokensOnBehalf();\n\t\trequire(studentExerciceSolution[msg.sender].tokensInCustody(address(this)) == 2*claimableERC20.distributedAmount(), \"Balance of sender not kept in ExerciceSolution\");\n\n\n\t\t// Crediting points\n\t\tif (!exerciceProgression[msg.sender][2])\n\t\t{\n\t\t\texerciceProgression[msg.sender][2] = true;\n\t\t\tTDERC20.distributeTokens(msg.sender, 2);\n\t\t}\n\t}\n\n\tfunction ex3_withdrawFromContract()\n\tpublic\n\t{\n\t\t// Checking a solution was submitted\n\t\trequire(exerciceProgression[msg.sender][0], \"No solution submitted\");\n\n\t\t// Checking how many tokens ExerciceSolution and Evaluator hold\n\t\tuint256 solutionInitBalance = claimableERC20.balanceOf(address(studentExerciceSolution[msg.sender]));\n\t\tuint256 selfInitBalance = claimableERC20.balanceOf(address(this));\n\t\tuint256 amountToWithdraw = studentExerciceSolution[msg.sender].tokensInCustody(address(this));\n\n\t\t// Withdraw tokens through ExerciceSolution\n\t\tstudentExerciceSolution[msg.sender].withdrawTokens(amountToWithdraw);\n\n\t\t// Verifying tokens where withdrew correctly\n\t\tuint256 solutionEndBalance = claimableERC20.balanceOf(address(studentExerciceSolution[msg.sender]));\n\t\tuint256 selfEndBalance = claimableERC20.balanceOf(address(this));\n\t\tuint256 amountLeft = studentExerciceSolution[msg.sender].tokensInCustody(address(this));\n\n\t\trequire(solutionInitBalance - solutionEndBalance== amountToWithdraw, \"ExerciceSolution has an incorrect amount of tokens\");\n\t\trequire(selfEndBalance - selfInitBalance == amountToWithdraw, \"Evaluator has an incorrect amount of tokens\");\n\t\trequire(amountLeft == 0, \"Tokens left held by ExerciceSolution\");\n\n\t\t// Crediting points\n\t\tif (!exerciceProgression[msg.sender][3])\n\t\t{\n\t\t\texerciceProgression[msg.sender][3] = true;\n\t\t\tTDERC20.distributeTokens(msg.sender, 2);\n\t\t}\n\t}\n\n\tfunction ex4_approvedExerciceSolution()\n\tpublic\n\t{\n\t\t// Checking a solution was submitted\n\t\trequire(exerciceProgression[msg.sender][0], \"No solution submitted\");\n\n\t\trequire(claimableERC20.allowance(msg.sender, address(studentExerciceSolution[msg.sender])) > 0,  \"ExerciceSolution no allowed to spend msg.sender tokens\");\n\n\t\t// Crediting points\n\t\tif (!exerciceProgression[msg.sender][4])\n\t\t{\n\t\t\texerciceProgression[msg.sender][4] = true;\n\t\t\tTDERC20.distributeTokens(msg.sender, 1);\n\t\t}\n\t}\n\n\tfunction ex5_revokedExerciceSolution()\n\tpublic\n\t{\n\t\t// Checking a solution was submitted\n\t\trequire(exerciceProgression[msg.sender][0], \"No solution submitted\");\n\n\t\trequire(claimableERC20.allowance(msg.sender, address(studentExerciceSolution[msg.sender])) == 0, \"ExerciceSolution still allowed to spend msg.sender tokens\");\n\n\t\t// Crediting points\n\t\tif (!exerciceProgression[msg.sender][5])\n\t\t{\n\t\t\texerciceProgression[msg.sender][5] = true;\n\t\t\tTDERC20.distributeTokens(msg.sender, 1);\n\t\t}\n\t}\n\n\tfunction ex6_depositTokens()\n\tpublic\n\t{\n\t\t// Checking a solution was submitted\n\t\trequire(exerciceProgression[msg.sender][0], \"No solution submitted\");\n\n\t\tuint256 amountToDeposit = 100;\n\n\t\t// Checking how many tokens ExerciceSolution and Evaluator hold\n\t\tuint256 solutionInitBalance = claimableERC20.balanceOf(address(studentExerciceSolution[msg.sender]));\n\t\tuint256 selfInitBalance = claimableERC20.balanceOf(address(this));\n\t\tuint256 amountDeposited = studentExerciceSolution[msg.sender].tokensInCustody(address(this));\n\t\trequire(selfInitBalance>= amountToDeposit, \"Evaluator does not hold enough tokens\");\n\n\t\t// Approve student solution to manipulate our tokens\n\t\tclaimableERC20.increaseAllowance(address(studentExerciceSolution[msg.sender]), amountToDeposit);\n\n\t\t// Deposit tokens in student contract\n\t\tstudentExerciceSolution[msg.sender].depositTokens(amountToDeposit);\n\n\t\t// Check balances are correct\n\t\tuint256 solutionEndBalance = claimableERC20.balanceOf(address(studentExerciceSolution[msg.sender]));\n\t\tuint256 selfEndBalance = claimableERC20.balanceOf(address(this));\n\t\tuint256 amountLeft = studentExerciceSolution[msg.sender].tokensInCustody(address(this));\n\n\t\trequire(solutionEndBalance - solutionInitBalance == amountToDeposit, \"ExerciceSolution has an incorrect amount of tokens\");\n\t\trequire(selfInitBalance - selfEndBalance == amountToDeposit, \"Evaluator has an incorrect amount of tokens\");\n\t\trequire(amountLeft - amountDeposited == amountToDeposit, \"Balance of Evaluator not credited correctly in ExerciceSolution\");\n\n\n\t\t// Crediting points\n\t\tif (!exerciceProgression[msg.sender][6])\n\t\t{\n\t\t\texerciceProgression[msg.sender][6] = true;\n\t\t\tTDERC20.distributeTokens(msg.sender, 2);\n\t\t}\n\t}\n\n\tfunction ex7_createERC20()\n\tpublic\n\t{\n\t\t// Checking a solution was submitted\n\t\trequire(exerciceProgression[msg.sender][0], \"No solution submitted\");\n\n\t\t// Get ExerciceSolutionERC20 address\n\t\taddress exerciceSolutionERC20 = studentExerciceSolution[msg.sender].getERC20DepositAddress();\n\t\tIERC20Mintable ExerciceSolutionERC20 = IERC20Mintable(exerciceSolutionERC20);\n\n\t\t// Check that ExerciceSolution is a minter to ExerciceSolutionERC20\n\t\t// Check that we are not a minter to ExerciceSolutionERC20\n\t\trequire(ExerciceSolutionERC20.isMinter(address(studentExerciceSolution[msg.sender])), \"ExerciceSolution is not minter\");\n\t\trequire(!ExerciceSolutionERC20.isMinter(address(this)), \"Evaluator is minter\");\n\n\t\t// Check that we can not mint ExerciceSolutionERC20 tokens \n\t\tbool wasMintAccepted = false;\n\t\ttry ExerciceSolutionERC20.mint(address(this), 10000)\n\t\t{\n\t\t\twasMintAccepted = true;\n        } \n        catch \n        {\n            // This is executed in case revert() was used.\n            wasMintAccepted = false;\n        }\n\n        require(!wasMintAccepted, \"Evaluator was able to mint\");\n\n\t\t// Crediting points\n\t\tif (!exerciceProgression[msg.sender][7])\n\t\t{\n\t\t\texerciceProgression[msg.sender][7] = true;\n\t\t\tTDERC20.distributeTokens(msg.sender, 2);\n\t\t}\n\t}\n\n\tfunction ex8_depositAndMint()\n\tpublic\n\t{\n\t\t// Checking a solution was submitted\n\t\trequire(exerciceProgression[msg.sender][0], \"No solution submitted\");\n\n\t\tuint256 amountToDeposit = 100;\n\n\t\t// Checking how many tokens ExerciceSolution and Evaluator hold\n\t\tuint256 solutionInitBalance = claimableERC20.balanceOf(address(studentExerciceSolution[msg.sender]));\n\t\tuint256 selfInitBalance = claimableERC20.balanceOf(address(this));\n\t\taddress exerciceSolutionERC20 = studentExerciceSolution[msg.sender].getERC20DepositAddress();\n\t\tIERC20Mintable ExerciceSolutionERC20 = IERC20Mintable(exerciceSolutionERC20);\n\t\tuint256 amountDeposited = ExerciceSolutionERC20.balanceOf(address(this));\n\t\tuint256 initWrappedTotalSupply = ExerciceSolutionERC20.totalSupply();\n\t\trequire(selfInitBalance>= amountToDeposit, \"Evaluator does not hold enough tokens\");\n\n\t\t// Approve student solution to manipulate our tokens\n\t\tclaimableERC20.increaseAllowance(address(studentExerciceSolution[msg.sender]), amountToDeposit);\n\n\t\t// Deposit tokens in student contract\n\t\tstudentExerciceSolution[msg.sender].depositTokens(amountToDeposit);\n\n\t\t// Check balances are correct\n\t\tuint256 solutionEndBalance = claimableERC20.balanceOf(address(studentExerciceSolution[msg.sender]));\n\t\tuint256 selfEndBalance = claimableERC20.balanceOf(address(this));\n\t\tuint256 amountLeft = ExerciceSolutionERC20.balanceOf(address(this));\n\t\tuint256 endWrappedTotalSupply = ExerciceSolutionERC20.totalSupply();\n\n\t\trequire(solutionEndBalance - solutionInitBalance == amountToDeposit, \"ExerciceSolution has an incorrect amount of tokens\");\n\t\trequire(selfInitBalance - selfEndBalance == amountToDeposit, \"Evaluator has an incorrect amount of tokens\");\n\t\trequire(amountLeft - amountDeposited == amountToDeposit, \"Balance of Evaluator not credited correctly in ExerciceSolutionErc20\");\n\t\trequire(endWrappedTotalSupply - initWrappedTotalSupply == amountToDeposit, \"ExerciceSolutionErc20 were not minted correctly\");\n\n\t\t// Crediting points\n\t\tif (!exerciceProgression[msg.sender][8])\n\t\t{\n\t\t\texerciceProgression[msg.sender][8] = true;\n\t\t\tTDERC20.distributeTokens(msg.sender, 2);\n\t\t}\n\t}\n\n\tfunction ex9_withdrawAndBurn()\n\tpublic\n\t{\n\t\t// Checking a solution was submitted\n\t\trequire(exerciceProgression[msg.sender][0], \"No solution submitted\");\n\n\t\t// Checking how many tokens ExerciceSolution and Evaluator hold\n\t\tuint256 solutionInitBalance = claimableERC20.balanceOf(address(studentExerciceSolution[msg.sender]));\n\t\tuint256 selfInitBalance = claimableERC20.balanceOf(address(this));\n\t\taddress exerciceSolutionERC20 = studentExerciceSolution[msg.sender].getERC20DepositAddress();\n\t\tIERC20Mintable ExerciceSolutionERC20 = IERC20Mintable(exerciceSolutionERC20);\n\t\tuint256 amountToWithdraw = ExerciceSolutionERC20.balanceOf(address(this));\n\t\tuint256 initWrappedTotalSupply = ExerciceSolutionERC20.totalSupply();\n\n\t\t// Withdraw tokens through ExerciceSolution\n\t\tstudentExerciceSolution[msg.sender].withdrawTokens(amountToWithdraw);\n\n\t\t// Verifying tokens where withdrew correctly\n\t\tuint256 solutionEndBalance = claimableERC20.balanceOf(address(studentExerciceSolution[msg.sender]));\n\t\tuint256 selfEndBalance = claimableERC20.balanceOf(address(this));\n\t\tuint256 amountLeft = ExerciceSolutionERC20.balanceOf(address(this));\n\t\tuint256 endWrappedTotalSupply = ExerciceSolutionERC20.totalSupply();\n\n\t\trequire(solutionInitBalance - solutionEndBalance== amountToWithdraw, \"ExerciceSolution has an incorrect amount of tokens\");\n\t\trequire(selfEndBalance - selfInitBalance == amountToWithdraw, \"Evaluator has an incorrect amount of tokens\");\n\t\trequire(amountLeft == 0, \"Tokens still credited ExerciceSolutionErc20\");\n\t\trequire(initWrappedTotalSupply - endWrappedTotalSupply == amountToWithdraw, \"ExerciceSolutionErc20 were not burned correctly\");\n\n\t\t// Crediting points\n\t\tif (!exerciceProgression[msg.sender][9])\n\t\t{\n\t\t\texerciceProgression[msg.sender][9] = true;\n\t\t\tTDERC20.distributeTokens(msg.sender, 2);\n\t\t}\n\t}\n\n\n\t/* Internal functions and modifiers */ \n\tfunction submitExercice(IExerciceSolution studentExercice)\n\tpublic\n\t{\n\t\t// Checking this contract was not used by another group before\n\t\trequire(!hasBeenPaired[address(studentExercice)]);\n\n\t\t// Assigning passed ERC20 as student ERC20\n\t\tstudentExerciceSolution[msg.sender] = studentExercice;\n\t\thasBeenPaired[address(studentExercice)] = true;\n\n\t\tif (!exerciceProgression[msg.sender][0])\n\t\t{\n\t\t\texerciceProgression[msg.sender][0] = true;\n\t\t\tTDERC20.distributeTokens(msg.sender, 1);\n\t\t}\n\t}\n\n\tmodifier onlyTeachers() \n\t{\n\n\t    require(TDERC20.teachers(msg.sender));\n\t    _;\n\t}\n\n\tfunction _compareStrings(string memory a, string memory b) \n\tinternal \n\tpure \n\treturns (bool) \n\t{\n    \treturn (keccak256(abi.encodePacked((a))) == keccak256(abi.encodePacked((b))));\n\t}\n\n\tfunction bytes32ToString(bytes32 _bytes32) \n\tpublic \n\tpure returns (string memory) \n\t{\n        uint8 i = 0;\n        while(i < 32 && _bytes32[i] != 0) {\n            i++;\n        }\n        bytes memory bytesArray = new bytes(i);\n        for (i = 0; i < 32 && _bytes32[i] != 0; i++) {\n            bytesArray[i] = _bytes32[i];\n        }\n        return string(bytesArray);\n    }\n\n}\n",
  "sourcePath": "/Users/antoinerevel/Documents/Cours/ESILV A4/Decentralized Finance/TD01 ERC20-102/erc20-102/contracts/Evaluator.sol",
  "compiler": {
    "name": "solc",
    "version": "0.6.2+commit.bacdbe57.Emscripten.clang"
  },
  "schemaVersion": "3.4.10",
  "updatedAt": "2023-01-22T22:22:02.819Z",
  "networkType": "ethereum",
  "devdoc": {
    "methods": {}
  },
  "userdoc": {
    "methods": {}
  }
}