{
  "contractName": "Evaluator",
  "abi": [
    {
      "inputs": [
        {
          "internalType": "contract ERC20TD",
          "name": "_TDERC20",
          "type": "address"
        },
        {
          "internalType": "contract ERC20Claimable",
          "name": "_claimableERC20",
          "type": "address"
        }
      ],
      "stateMutability": "nonpayable",
      "type": "constructor"
    },
    {
      "anonymous": false,
      "inputs": [
        {
          "indexed": false,
          "internalType": "address",
          "name": "erc20Address",
          "type": "address"
        },
        {
          "indexed": false,
          "internalType": "address",
          "name": "claimableERC20Address",
          "type": "address"
        }
      ],
      "name": "constructedCorrectly",
      "type": "event"
    },
    {
      "anonymous": false,
      "inputs": [
        {
          "indexed": false,
          "internalType": "string",
          "name": "ticker",
          "type": "string"
        },
        {
          "indexed": false,
          "internalType": "uint256",
          "name": "supply",
          "type": "uint256"
        }
      ],
      "name": "newRandomTickerAndSupply",
      "type": "event"
    },
    {
      "stateMutability": "payable",
      "type": "fallback"
    },
    {
      "inputs": [
        {
          "internalType": "address",
          "name": "",
          "type": "address"
        },
        {
          "internalType": "uint256",
          "name": "",
          "type": "uint256"
        }
      ],
      "name": "exerciceProgression",
      "outputs": [
        {
          "internalType": "bool",
          "name": "",
          "type": "bool"
        }
      ],
      "stateMutability": "view",
      "type": "function"
    },
    {
      "inputs": [
        {
          "internalType": "address",
          "name": "",
          "type": "address"
        }
      ],
      "name": "hasBeenPaired",
      "outputs": [
        {
          "internalType": "bool",
          "name": "",
          "type": "bool"
        }
      ],
      "stateMutability": "view",
      "type": "function"
    },
    {
      "inputs": [],
      "name": "nextValueStoreRank",
      "outputs": [
        {
          "internalType": "uint256",
          "name": "",
          "type": "uint256"
        }
      ],
      "stateMutability": "view",
      "type": "function"
    },
    {
      "inputs": [
        {
          "internalType": "address",
          "name": "",
          "type": "address"
        }
      ],
      "name": "studentExerciceSolution",
      "outputs": [
        {
          "internalType": "contract IExerciceSolution",
          "name": "",
          "type": "address"
        }
      ],
      "stateMutability": "view",
      "type": "function"
    },
    {
      "inputs": [
        {
          "internalType": "address",
          "name": "",
          "type": "address"
        }
      ],
      "name": "teachers",
      "outputs": [
        {
          "internalType": "bool",
          "name": "",
          "type": "bool"
        }
      ],
      "stateMutability": "view",
      "type": "function"
    },
    {
      "stateMutability": "payable",
      "type": "receive"
    },
    {
      "inputs": [],
      "name": "ex1_claimedPoints",
      "outputs": [],
      "stateMutability": "nonpayable",
      "type": "function"
    },
    {
      "inputs": [],
      "name": "ex2_claimedFromContract",
      "outputs": [],
      "stateMutability": "nonpayable",
      "type": "function"
    },
    {
      "inputs": [],
      "name": "ex3_withdrawFromContract",
      "outputs": [],
      "stateMutability": "nonpayable",
      "type": "function"
    },
    {
      "inputs": [],
      "name": "ex4_approvedExerciceSolution",
      "outputs": [],
      "stateMutability": "nonpayable",
      "type": "function"
    },
    {
      "inputs": [],
      "name": "ex5_revokedExerciceSolution",
      "outputs": [],
      "stateMutability": "nonpayable",
      "type": "function"
    },
    {
      "inputs": [],
      "name": "ex6_depositTokens",
      "outputs": [],
      "stateMutability": "nonpayable",
      "type": "function"
    },
    {
      "inputs": [],
      "name": "ex7_createERC20",
      "outputs": [],
      "stateMutability": "nonpayable",
      "type": "function"
    },
    {
      "inputs": [],
      "name": "ex8_depositAndMint",
      "outputs": [],
      "stateMutability": "nonpayable",
      "type": "function"
    },
    {
      "inputs": [],
      "name": "ex9_withdrawAndBurn",
      "outputs": [],
      "stateMutability": "nonpayable",
      "type": "function"
    },
    {
      "inputs": [
        {
          "internalType": "contract IExerciceSolution",
          "name": "studentExercice",
          "type": "address"
        }
      ],
      "name": "submitExercice",
      "outputs": [],
      "stateMutability": "nonpayable",
      "type": "function"
    },
    {
      "inputs": [
        {
          "internalType": "bytes32",
          "name": "_bytes32",
          "type": "bytes32"
        }
      ],
      "name": "bytes32ToString",
      "outputs": [
        {
          "internalType": "string",
          "name": "",
          "type": "string"
        }
      ],
      "stateMutability": "pure",
      "type": "function"
    }
  ],
  "bytecode": "0x60806040523480156200001157600080fd5b5060405162005b7738038062005b7783398181016040526200003791908101906200016e565b81600160006101000a81548173ffffffffffffffffffffffffffffffffffffffff021916908373ffffffffffffffffffffffffffffffffffffffff16021790555080600260006101000a81548173ffffffffffffffffffffffffffffffffffffffff021916908373ffffffffffffffffffffffffffffffffffffffff1602179055507faec105056259e6e944bb71151b9922f56b566fb88054f082eef397db7ccddf2a600160009054906101000a900473ffffffffffffffffffffffffffffffffffffffff16600260009054906101000a900473ffffffffffffffffffffffffffffffffffffffff1660405162000130929190620001c0565b60405180910390a150506200027d565b600081519050620001518162000249565b92915050565b600081519050620001688162000263565b92915050565b600080604083850312156200018257600080fd5b6000620001928582860162000157565b9250506020620001a58582860162000140565b9150509250929050565b620001ba81620001ed565b82525050565b6000604082019050620001d76000830185620001af565b620001e66020830184620001af565b9392505050565b6000620001fa8262000229565b9050919050565b60006200020e82620001ed565b9050919050565b60006200022282620001ed565b9050919050565b600073ffffffffffffffffffffffffffffffffffffffff82169050919050565b620002548162000201565b81146200026057600080fd5b50565b6200026e8162000215565b81146200027a57600080fd5b50565b6158ea806200028d6000396000f3fe6080604052600436106100f75760003560e01c8063836a10b41161008a578063af6c4d1911610059578063af6c4d19146102ac578063d4878938146102c3578063f0a47f78146102da578063f4fdbb8814610317576100fe565b8063836a10b41461022a5780639201de5514610241578063a38ac0241461027e578063aba62af314610295576100fe565b806339119dce116100c657806339119dce146101ba57806357aecf06146101e55780637a1e55ec146101fc5780637aa1850c14610213576100fe565b80630b961254146101005780631e8a3ae41461013d5780632236d353146101545780632e64c5001461017d576100fe565b366100fe57005b005b34801561010c57600080fd5b5061012760048036036101229190810190614ac0565b610354565b6040516101349190615455565b60405180910390f35b34801561014957600080fd5b50610152610387565b005b34801561016057600080fd5b5061017b60048036036101769190810190614ba0565b610bd0565b005b34801561018957600080fd5b506101a4600480360361019f9190810190614b12565b610e5c565b6040516101b1919061543a565b60405180910390f35b3480156101c657600080fd5b506101cf610e8b565b6040516101dc91906156d2565b60405180910390f35b3480156101f157600080fd5b506101fa610e91565b005b34801561020857600080fd5b506102116118fa565b005b34801561021f57600080fd5b50610228611e92565b005b34801561023657600080fd5b5061023f612913565b005b34801561024d57600080fd5b5061026860048036036102639190810190614b77565b612c5e565b6040516102759190615470565b60405180910390f35b34801561028a57600080fd5b50610293612dbb565b005b3480156102a157600080fd5b506102aa6136ca565b005b3480156102b857600080fd5b506102c1613ac7565b005b3480156102cf57600080fd5b506102d8613e12565b005b3480156102e657600080fd5b5061030160048036036102fc9190810190614ac0565b6149ed565b60405161030e919061543a565b60405180910390f35b34801561032357600080fd5b5061033e60048036036103399190810190614ac0565b614a0d565b60405161034b919061543a565b60405180910390f35b602d6020528060005260406000206000915054906101000a900473ffffffffffffffffffffffffffffffffffffffff1681565b602c60003373ffffffffffffffffffffffffffffffffffffffff1673ffffffffffffffffffffffffffffffffffffffff168152602001908152602001600020600080815260200190815260200160002060009054906101000a900460ff16610424576040517f08c379a000000000000000000000000000000000000000000000000000000000815260040161041b90615652565b60405180910390fd5b6000600260009054906101000a900473ffffffffffffffffffffffffffffffffffffffff1673ffffffffffffffffffffffffffffffffffffffff166370a08231602d60003373ffffffffffffffffffffffffffffffffffffffff1673ffffffffffffffffffffffffffffffffffffffff16815260200190815260200160002060009054906101000a900473ffffffffffffffffffffffffffffffffffffffff166040518263ffffffff1660e01b81526004016104e09190615337565b60206040518083038186803b1580156104f857600080fd5b505afa15801561050c573d6000803e3d6000fd5b505050506040513d601f19601f820116820180604052506105309190810190614bc9565b9050602d60003373ffffffffffffffffffffffffffffffffffffffff1673ffffffffffffffffffffffffffffffffffffffff16815260200190815260200160002060009054906101000a900473ffffffffffffffffffffffffffffffffffffffff1673ffffffffffffffffffffffffffffffffffffffff16630e4f7f366040518163ffffffff1660e01b8152600401600060405180830381600087803b1580156105d957600080fd5b505af11580156105ed573d6000803e3d6000fd5b505050506000600260009054906101000a900473ffffffffffffffffffffffffffffffffffffffff1673ffffffffffffffffffffffffffffffffffffffff166370a08231602d60003373ffffffffffffffffffffffffffffffffffffffff1673ffffffffffffffffffffffffffffffffffffffff16815260200190815260200160002060009054906101000a900473ffffffffffffffffffffffffffffffffffffffff166040518263ffffffff1660e01b81526004016106ad9190615337565b60206040518083038186803b1580156106c557600080fd5b505afa1580156106d9573d6000803e3d6000fd5b505050506040513d601f19601f820116820180604052506106fd9190810190614bc9565b9050600260009054906101000a900473ffffffffffffffffffffffffffffffffffffffff1673ffffffffffffffffffffffffffffffffffffffff16630d25320c6040518163ffffffff1660e01b815260040160206040518083038186803b15801561076757600080fd5b505afa15801561077b573d6000803e3d6000fd5b505050506040513d601f19601f8201168201806040525061079f9190810190614bc9565b828203146107e2576040517f08c379a00000000000000000000000000000000000000000000000000000000081526004016107d990615532565b60405180910390fd5b602d60003373ffffffffffffffffffffffffffffffffffffffff1673ffffffffffffffffffffffffffffffffffffffff16815260200190815260200160002060009054906101000a900473ffffffffffffffffffffffffffffffffffffffff1673ffffffffffffffffffffffffffffffffffffffff16630e4f7f366040518163ffffffff1660e01b8152600401600060405180830381600087803b15801561088957600080fd5b505af115801561089d573d6000803e3d6000fd5b50505050600260009054906101000a900473ffffffffffffffffffffffffffffffffffffffff1673ffffffffffffffffffffffffffffffffffffffff16630d25320c6040518163ffffffff1660e01b815260040160206040518083038186803b15801561090957600080fd5b505afa15801561091d573d6000803e3d6000fd5b505050506040513d601f19601f820116820180604052506109419190810190614bc9565b600202602d60003373ffffffffffffffffffffffffffffffffffffffff1673ffffffffffffffffffffffffffffffffffffffff16815260200190815260200160002060009054906101000a900473ffffffffffffffffffffffffffffffffffffffff1673ffffffffffffffffffffffffffffffffffffffff16630776d118306040518263ffffffff1660e01b81526004016109dc9190615352565b602060405180830381600087803b1580156109f657600080fd5b505af1158015610a0a573d6000803e3d6000fd5b505050506040513d601f19601f82011682018060405250610a2e9190810190614bc9565b14610a6e576040517f08c379a0000000000000000000000000000000000000000000000000000000008152600401610a6590615552565b60405180910390fd5b602c60003373ffffffffffffffffffffffffffffffffffffffff1673ffffffffffffffffffffffffffffffffffffffff16815260200190815260200160002060006002815260200190815260200160002060009054906101000a900460ff16610bcc576001602c60003373ffffffffffffffffffffffffffffffffffffffff1673ffffffffffffffffffffffffffffffffffffffff16815260200190815260200160002060006002815260200190815260200160002060006101000a81548160ff021916908315150217905550600160009054906101000a900473ffffffffffffffffffffffffffffffffffffffff1673ffffffffffffffffffffffffffffffffffffffff1663158a49883360026040518363ffffffff1660e01b8152600401610b999291906153e8565b600060405180830381600087803b158015610bb357600080fd5b505af1158015610bc7573d6000803e3d6000fd5b505050505b5050565b602e60008273ffffffffffffffffffffffffffffffffffffffff1673ffffffffffffffffffffffffffffffffffffffff16815260200190815260200160002060009054906101000a900460ff1615610c2757600080fd5b80602d60003373ffffffffffffffffffffffffffffffffffffffff1673ffffffffffffffffffffffffffffffffffffffff16815260200190815260200160002060006101000a81548173ffffffffffffffffffffffffffffffffffffffff021916908373ffffffffffffffffffffffffffffffffffffffff1602179055506001602e60008373ffffffffffffffffffffffffffffffffffffffff1673ffffffffffffffffffffffffffffffffffffffff16815260200190815260200160002060006101000a81548160ff021916908315150217905550602c60003373ffffffffffffffffffffffffffffffffffffffff1673ffffffffffffffffffffffffffffffffffffffff168152602001908152602001600020600080815260200190815260200160002060009054906101000a900460ff16610e59576001602c60003373ffffffffffffffffffffffffffffffffffffffff1673ffffffffffffffffffffffffffffffffffffffff168152602001908152602001600020600080815260200190815260200160002060006101000a81548160ff021916908315150217905550600160009054906101000a900473ffffffffffffffffffffffffffffffffffffffff1673ffffffffffffffffffffffffffffffffffffffff1663158a49883360016040518363ffffffff1660e01b8152600401610e269291906153bf565b600060405180830381600087803b158015610e4057600080fd5b505af1158015610e54573d6000803e3d6000fd5b505050505b50565b602c6020528160005260406000206020528060005260406000206000915091509054906101000a900460ff1681565b602b5481565b602c60003373ffffffffffffffffffffffffffffffffffffffff1673ffffffffffffffffffffffffffffffffffffffff168152602001908152602001600020600080815260200190815260200160002060009054906101000a900460ff16610f2e576040517f08c379a0000000000000000000000000000000000000000000000000000000008152600401610f2590615652565b60405180910390fd5b6000606490506000600260009054906101000a900473ffffffffffffffffffffffffffffffffffffffff1673ffffffffffffffffffffffffffffffffffffffff166370a08231602d60003373ffffffffffffffffffffffffffffffffffffffff1673ffffffffffffffffffffffffffffffffffffffff16815260200190815260200160002060009054906101000a900473ffffffffffffffffffffffffffffffffffffffff166040518263ffffffff1660e01b8152600401610ff09190615337565b60206040518083038186803b15801561100857600080fd5b505afa15801561101c573d6000803e3d6000fd5b505050506040513d601f19601f820116820180604052506110409190810190614bc9565b90506000600260009054906101000a900473ffffffffffffffffffffffffffffffffffffffff1673ffffffffffffffffffffffffffffffffffffffff166370a08231306040518263ffffffff1660e01b815260040161109f9190615352565b60206040518083038186803b1580156110b757600080fd5b505afa1580156110cb573d6000803e3d6000fd5b505050506040513d601f19601f820116820180604052506110ef9190810190614bc9565b90506000602d60003373ffffffffffffffffffffffffffffffffffffffff1673ffffffffffffffffffffffffffffffffffffffff16815260200190815260200160002060009054906101000a900473ffffffffffffffffffffffffffffffffffffffff1673ffffffffffffffffffffffffffffffffffffffff16630776d118306040518263ffffffff1660e01b815260040161118b9190615352565b602060405180830381600087803b1580156111a557600080fd5b505af11580156111b9573d6000803e3d6000fd5b505050506040513d601f19601f820116820180604052506111dd9190810190614bc9565b905083821015611222576040517f08c379a0000000000000000000000000000000000000000000000000000000008152600401611219906155f2565b60405180910390fd5b600260009054906101000a900473ffffffffffffffffffffffffffffffffffffffff1673ffffffffffffffffffffffffffffffffffffffff166339509351602d60003373ffffffffffffffffffffffffffffffffffffffff1673ffffffffffffffffffffffffffffffffffffffff16815260200190815260200160002060009054906101000a900473ffffffffffffffffffffffffffffffffffffffff16866040518363ffffffff1660e01b81526004016112de929190615411565b602060405180830381600087803b1580156112f857600080fd5b505af115801561130c573d6000803e3d6000fd5b505050506040513d601f19601f820116820180604052506113309190810190614b4e565b50602d60003373ffffffffffffffffffffffffffffffffffffffff1673ffffffffffffffffffffffffffffffffffffffff16815260200190815260200160002060009054906101000a900473ffffffffffffffffffffffffffffffffffffffff1673ffffffffffffffffffffffffffffffffffffffff1663dd49756e856040518263ffffffff1660e01b81526004016113c991906156d2565b602060405180830381600087803b1580156113e357600080fd5b505af11580156113f7573d6000803e3d6000fd5b505050506040513d601f19601f8201168201806040525061141b9190810190614bc9565b506000600260009054906101000a900473ffffffffffffffffffffffffffffffffffffffff1673ffffffffffffffffffffffffffffffffffffffff166370a08231602d60003373ffffffffffffffffffffffffffffffffffffffff1673ffffffffffffffffffffffffffffffffffffffff16815260200190815260200160002060009054906101000a900473ffffffffffffffffffffffffffffffffffffffff166040518263ffffffff1660e01b81526004016114d89190615337565b60206040518083038186803b1580156114f057600080fd5b505afa158015611504573d6000803e3d6000fd5b505050506040513d601f19601f820116820180604052506115289190810190614bc9565b90506000600260009054906101000a900473ffffffffffffffffffffffffffffffffffffffff1673ffffffffffffffffffffffffffffffffffffffff166370a08231306040518263ffffffff1660e01b81526004016115879190615352565b60206040518083038186803b15801561159f57600080fd5b505afa1580156115b3573d6000803e3d6000fd5b505050506040513d601f19601f820116820180604052506115d79190810190614bc9565b90506000602d60003373ffffffffffffffffffffffffffffffffffffffff1673ffffffffffffffffffffffffffffffffffffffff16815260200190815260200160002060009054906101000a900473ffffffffffffffffffffffffffffffffffffffff1673ffffffffffffffffffffffffffffffffffffffff16630776d118306040518263ffffffff1660e01b81526004016116739190615352565b602060405180830381600087803b15801561168d57600080fd5b505af11580156116a1573d6000803e3d6000fd5b505050506040513d601f19601f820116820180604052506116c59190810190614bc9565b9050868684031461170b576040517f08c379a0000000000000000000000000000000000000000000000000000000008152600401611702906154f2565b60405180910390fd5b868286031461174f576040517f08c379a0000000000000000000000000000000000000000000000000000000008152600401611746906154b2565b60405180910390fd5b8684820314611793576040517f08c379a000000000000000000000000000000000000000000000000000000000815260040161178a906156b2565b60405180910390fd5b602c60003373ffffffffffffffffffffffffffffffffffffffff1673ffffffffffffffffffffffffffffffffffffffff16815260200190815260200160002060006006815260200190815260200160002060009054906101000a900460ff166118f1576001602c60003373ffffffffffffffffffffffffffffffffffffffff1673ffffffffffffffffffffffffffffffffffffffff16815260200190815260200160002060006006815260200190815260200160002060006101000a81548160ff021916908315150217905550600160009054906101000a900473ffffffffffffffffffffffffffffffffffffffff1673ffffffffffffffffffffffffffffffffffffffff1663158a49883360026040518363ffffffff1660e01b81526004016118be9291906153e8565b600060405180830381600087803b1580156118d857600080fd5b505af11580156118ec573d6000803e3d6000fd5b505050505b50505050505050565b602c60003373ffffffffffffffffffffffffffffffffffffffff1673ffffffffffffffffffffffffffffffffffffffff168152602001908152602001600020600080815260200190815260200160002060009054906101000a900460ff16611997576040517f08c379a000000000000000000000000000000000000000000000000000000000815260040161198e90615652565b60405180910390fd5b6000602d60003373ffffffffffffffffffffffffffffffffffffffff1673ffffffffffffffffffffffffffffffffffffffff16815260200190815260200160002060009054906101000a900473ffffffffffffffffffffffffffffffffffffffff1673ffffffffffffffffffffffffffffffffffffffff166319fa44cd6040518163ffffffff1660e01b8152600401602060405180830381600087803b158015611a4057600080fd5b505af1158015611a54573d6000803e3d6000fd5b505050506040513d601f19601f82011682018060405250611a789190810190614ae9565b905060008190508073ffffffffffffffffffffffffffffffffffffffff1663aa271e1a602d60003373ffffffffffffffffffffffffffffffffffffffff1673ffffffffffffffffffffffffffffffffffffffff16815260200190815260200160002060009054906101000a900473ffffffffffffffffffffffffffffffffffffffff166040518263ffffffff1660e01b8152600401611b179190615337565b60206040518083038186803b158015611b2f57600080fd5b505afa158015611b43573d6000803e3d6000fd5b505050506040513d601f19601f82011682018060405250611b679190810190614b4e565b611ba6576040517f08c379a0000000000000000000000000000000000000000000000000000000008152600401611b9d90615492565b60405180910390fd5b8073ffffffffffffffffffffffffffffffffffffffff1663aa271e1a306040518263ffffffff1660e01b8152600401611bdf9190615352565b60206040518083038186803b158015611bf757600080fd5b505afa158015611c0b573d6000803e3d6000fd5b505050506040513d601f19601f82011682018060405250611c2f9190810190614b4e565b15611c6f576040517f08c379a0000000000000000000000000000000000000000000000000000000008152600401611c6690615512565b60405180910390fd5b60008090508173ffffffffffffffffffffffffffffffffffffffff166340c10f19306127106040518363ffffffff1660e01b8152600401611cb1929190615396565b600060405180830381600087803b158015611ccb57600080fd5b505af1925050508015611cdc575060015b611ce95760009050611cee565b600190505b8015611d2f576040517f08c379a0000000000000000000000000000000000000000000000000000000008152600401611d26906155d2565b60405180910390fd5b602c60003373ffffffffffffffffffffffffffffffffffffffff1673ffffffffffffffffffffffffffffffffffffffff16815260200190815260200160002060006007815260200190815260200160002060009054906101000a900460ff16611e8d576001602c60003373ffffffffffffffffffffffffffffffffffffffff1673ffffffffffffffffffffffffffffffffffffffff16815260200190815260200160002060006007815260200190815260200160002060006101000a81548160ff021916908315150217905550600160009054906101000a900473ffffffffffffffffffffffffffffffffffffffff1673ffffffffffffffffffffffffffffffffffffffff1663158a49883360026040518363ffffffff1660e01b8152600401611e5a9291906153e8565b600060405180830381600087803b158015611e7457600080fd5b505af1158015611e88573d6000803e3d6000fd5b505050505b505050565b602c60003373ffffffffffffffffffffffffffffffffffffffff1673ffffffffffffffffffffffffffffffffffffffff168152602001908152602001600020600080815260200190815260200160002060009054906101000a900460ff16611f2f576040517f08c379a0000000000000000000000000000000000000000000000000000000008152600401611f2690615652565b60405180910390fd5b6000600260009054906101000a900473ffffffffffffffffffffffffffffffffffffffff1673ffffffffffffffffffffffffffffffffffffffff166370a08231602d60003373ffffffffffffffffffffffffffffffffffffffff1673ffffffffffffffffffffffffffffffffffffffff16815260200190815260200160002060009054906101000a900473ffffffffffffffffffffffffffffffffffffffff166040518263ffffffff1660e01b8152600401611feb9190615337565b60206040518083038186803b15801561200357600080fd5b505afa158015612017573d6000803e3d6000fd5b505050506040513d601f19601f8201168201806040525061203b9190810190614bc9565b90506000600260009054906101000a900473ffffffffffffffffffffffffffffffffffffffff1673ffffffffffffffffffffffffffffffffffffffff166370a08231306040518263ffffffff1660e01b815260040161209a9190615352565b60206040518083038186803b1580156120b257600080fd5b505afa1580156120c6573d6000803e3d6000fd5b505050506040513d601f19601f820116820180604052506120ea9190810190614bc9565b90506000602d60003373ffffffffffffffffffffffffffffffffffffffff1673ffffffffffffffffffffffffffffffffffffffff16815260200190815260200160002060009054906101000a900473ffffffffffffffffffffffffffffffffffffffff1673ffffffffffffffffffffffffffffffffffffffff166319fa44cd6040518163ffffffff1660e01b8152600401602060405180830381600087803b15801561219557600080fd5b505af11580156121a9573d6000803e3d6000fd5b505050506040513d601f19601f820116820180604052506121cd9190810190614ae9565b9050600081905060008173ffffffffffffffffffffffffffffffffffffffff166370a08231306040518263ffffffff1660e01b815260040161220f9190615352565b60206040518083038186803b15801561222757600080fd5b505afa15801561223b573d6000803e3d6000fd5b505050506040513d601f19601f8201168201806040525061225f9190810190614bc9565b905060008273ffffffffffffffffffffffffffffffffffffffff166318160ddd6040518163ffffffff1660e01b815260040160206040518083038186803b1580156122a957600080fd5b505afa1580156122bd573d6000803e3d6000fd5b505050506040513d601f19601f820116820180604052506122e19190810190614bc9565b9050602d60003373ffffffffffffffffffffffffffffffffffffffff1673ffffffffffffffffffffffffffffffffffffffff16815260200190815260200160002060009054906101000a900473ffffffffffffffffffffffffffffffffffffffff1673ffffffffffffffffffffffffffffffffffffffff1663315a095d836040518263ffffffff1660e01b815260040161237b91906156d2565b602060405180830381600087803b15801561239557600080fd5b505af11580156123a9573d6000803e3d6000fd5b505050506040513d601f19601f820116820180604052506123cd9190810190614bc9565b506000600260009054906101000a900473ffffffffffffffffffffffffffffffffffffffff1673ffffffffffffffffffffffffffffffffffffffff166370a08231602d60003373ffffffffffffffffffffffffffffffffffffffff1673ffffffffffffffffffffffffffffffffffffffff16815260200190815260200160002060009054906101000a900473ffffffffffffffffffffffffffffffffffffffff166040518263ffffffff1660e01b815260040161248a9190615337565b60206040518083038186803b1580156124a257600080fd5b505afa1580156124b6573d6000803e3d6000fd5b505050506040513d601f19601f820116820180604052506124da9190810190614bc9565b90506000600260009054906101000a900473ffffffffffffffffffffffffffffffffffffffff1673ffffffffffffffffffffffffffffffffffffffff166370a08231306040518263ffffffff1660e01b81526004016125399190615352565b60206040518083038186803b15801561255157600080fd5b505afa158015612565573d6000803e3d6000fd5b505050506040513d601f19601f820116820180604052506125899190810190614bc9565b905060008573ffffffffffffffffffffffffffffffffffffffff166370a08231306040518263ffffffff1660e01b81526004016125c69190615352565b60206040518083038186803b1580156125de57600080fd5b505afa1580156125f2573d6000803e3d6000fd5b505050506040513d601f19601f820116820180604052506126169190810190614bc9565b905060008673ffffffffffffffffffffffffffffffffffffffff166318160ddd6040518163ffffffff1660e01b815260040160206040518083038186803b15801561266057600080fd5b505afa158015612674573d6000803e3d6000fd5b505050506040513d601f19601f820116820180604052506126989190810190614bc9565b905085848b03146126de576040517f08c379a00000000000000000000000000000000000000000000000000000000081526004016126d5906154f2565b60405180910390fd5b8589840314612722576040517f08c379a0000000000000000000000000000000000000000000000000000000008152600401612719906154b2565b60405180910390fd5b60008214612765576040517f08c379a000000000000000000000000000000000000000000000000000000000815260040161275c90615672565b60405180910390fd5b85818603146127a9576040517f08c379a00000000000000000000000000000000000000000000000000000000081526004016127a0906154d2565b60405180910390fd5b602c60003373ffffffffffffffffffffffffffffffffffffffff1673ffffffffffffffffffffffffffffffffffffffff16815260200190815260200160002060006009815260200190815260200160002060009054906101000a900460ff16612907576001602c60003373ffffffffffffffffffffffffffffffffffffffff1673ffffffffffffffffffffffffffffffffffffffff16815260200190815260200160002060006009815260200190815260200160002060006101000a81548160ff021916908315150217905550600160009054906101000a900473ffffffffffffffffffffffffffffffffffffffff1673ffffffffffffffffffffffffffffffffffffffff1663158a49883360026040518363ffffffff1660e01b81526004016128d49291906153e8565b600060405180830381600087803b1580156128ee57600080fd5b505af1158015612902573d6000803e3d6000fd5b505050505b50505050505050505050565b602c60003373ffffffffffffffffffffffffffffffffffffffff1673ffffffffffffffffffffffffffffffffffffffff168152602001908152602001600020600080815260200190815260200160002060009054906101000a900460ff166129b0576040517f08c379a00000000000000000000000000000000000000000000000000000000081526004016129a790615652565b60405180910390fd5b6000600260009054906101000a900473ffffffffffffffffffffffffffffffffffffffff1673ffffffffffffffffffffffffffffffffffffffff1663dd62ed3e33602d60003373ffffffffffffffffffffffffffffffffffffffff1673ffffffffffffffffffffffffffffffffffffffff16815260200190815260200160002060009054906101000a900473ffffffffffffffffffffffffffffffffffffffff166040518363ffffffff1660e01b8152600401612a6e92919061536d565b60206040518083038186803b158015612a8657600080fd5b505afa158015612a9a573d6000803e3d6000fd5b505050506040513d601f19601f82011682018060405250612abe9190810190614bc9565b14612afe576040517f08c379a0000000000000000000000000000000000000000000000000000000008152600401612af590615592565b60405180910390fd5b602c60003373ffffffffffffffffffffffffffffffffffffffff1673ffffffffffffffffffffffffffffffffffffffff16815260200190815260200160002060006005815260200190815260200160002060009054906101000a900460ff16612c5c576001602c60003373ffffffffffffffffffffffffffffffffffffffff1673ffffffffffffffffffffffffffffffffffffffff16815260200190815260200160002060006005815260200190815260200160002060006101000a81548160ff021916908315150217905550600160009054906101000a900473ffffffffffffffffffffffffffffffffffffffff1673ffffffffffffffffffffffffffffffffffffffff1663158a49883360016040518363ffffffff1660e01b8152600401612c299291906153bf565b600060405180830381600087803b158015612c4357600080fd5b505af1158015612c57573d6000803e3d6000fd5b505050505b565b606060008090505b60208160ff16108015612cb15750600060f81b838260ff1660208110612c8857fe5b1a60f81b7effffffffffffffffffffffffffffffffffffffffffffffffffffffffffffff191614155b15612cc3578080600101915050612c66565b60608160ff166040519080825280601f01601f191660200182016040528015612cfb5781602001600182028038833980820191505090505b509050600091505b60208260ff16108015612d4e5750600060f81b848360ff1660208110612d2557fe5b1a60f81b7effffffffffffffffffffffffffffffffffffffffffffffffffffffffffffff191614155b15612db157838260ff1660208110612d6257fe5b1a60f81b818360ff1681518110612d7557fe5b60200101907effffffffffffffffffffffffffffffffffffffffffffffffffffffffffffff1916908160001a9053508180600101925050612d03565b8092505050919050565b602c60003373ffffffffffffffffffffffffffffffffffffffff1673ffffffffffffffffffffffffffffffffffffffff168152602001908152602001600020600080815260200190815260200160002060009054906101000a900460ff16612e58576040517f08c379a0000000000000000000000000000000000000000000000000000000008152600401612e4f90615652565b60405180910390fd5b6000600260009054906101000a900473ffffffffffffffffffffffffffffffffffffffff1673ffffffffffffffffffffffffffffffffffffffff166370a08231602d60003373ffffffffffffffffffffffffffffffffffffffff1673ffffffffffffffffffffffffffffffffffffffff16815260200190815260200160002060009054906101000a900473ffffffffffffffffffffffffffffffffffffffff166040518263ffffffff1660e01b8152600401612f149190615337565b60206040518083038186803b158015612f2c57600080fd5b505afa158015612f40573d6000803e3d6000fd5b505050506040513d601f19601f82011682018060405250612f649190810190614bc9565b90506000600260009054906101000a900473ffffffffffffffffffffffffffffffffffffffff1673ffffffffffffffffffffffffffffffffffffffff166370a08231306040518263ffffffff1660e01b8152600401612fc39190615352565b60206040518083038186803b158015612fdb57600080fd5b505afa158015612fef573d6000803e3d6000fd5b505050506040513d601f19601f820116820180604052506130139190810190614bc9565b90506000602d60003373ffffffffffffffffffffffffffffffffffffffff1673ffffffffffffffffffffffffffffffffffffffff16815260200190815260200160002060009054906101000a900473ffffffffffffffffffffffffffffffffffffffff1673ffffffffffffffffffffffffffffffffffffffff16630776d118306040518263ffffffff1660e01b81526004016130af9190615352565b602060405180830381600087803b1580156130c957600080fd5b505af11580156130dd573d6000803e3d6000fd5b505050506040513d601f19601f820116820180604052506131019190810190614bc9565b9050602d60003373ffffffffffffffffffffffffffffffffffffffff1673ffffffffffffffffffffffffffffffffffffffff16815260200190815260200160002060009054906101000a900473ffffffffffffffffffffffffffffffffffffffff1673ffffffffffffffffffffffffffffffffffffffff1663315a095d826040518263ffffffff1660e01b815260040161319b91906156d2565b602060405180830381600087803b1580156131b557600080fd5b505af11580156131c9573d6000803e3d6000fd5b505050506040513d601f19601f820116820180604052506131ed9190810190614bc9565b506000600260009054906101000a900473ffffffffffffffffffffffffffffffffffffffff1673ffffffffffffffffffffffffffffffffffffffff166370a08231602d60003373ffffffffffffffffffffffffffffffffffffffff1673ffffffffffffffffffffffffffffffffffffffff16815260200190815260200160002060009054906101000a900473ffffffffffffffffffffffffffffffffffffffff166040518263ffffffff1660e01b81526004016132aa9190615337565b60206040518083038186803b1580156132c257600080fd5b505afa1580156132d6573d6000803e3d6000fd5b505050506040513d601f19601f820116820180604052506132fa9190810190614bc9565b90506000600260009054906101000a900473ffffffffffffffffffffffffffffffffffffffff1673ffffffffffffffffffffffffffffffffffffffff166370a08231306040518263ffffffff1660e01b81526004016133599190615352565b60206040518083038186803b15801561337157600080fd5b505afa158015613385573d6000803e3d6000fd5b505050506040513d601f19601f820116820180604052506133a99190810190614bc9565b90506000602d60003373ffffffffffffffffffffffffffffffffffffffff1673ffffffffffffffffffffffffffffffffffffffff16815260200190815260200160002060009054906101000a900473ffffffffffffffffffffffffffffffffffffffff1673ffffffffffffffffffffffffffffffffffffffff16630776d118306040518263ffffffff1660e01b81526004016134459190615352565b602060405180830381600087803b15801561345f57600080fd5b505af1158015613473573d6000803e3d6000fd5b505050506040513d601f19601f820116820180604052506134979190810190614bc9565b905083838703146134dd576040517f08c379a00000000000000000000000000000000000000000000000000000000081526004016134d4906154f2565b60405180910390fd5b8385830314613521576040517f08c379a0000000000000000000000000000000000000000000000000000000008152600401613518906154b2565b60405180910390fd5b60008114613564576040517f08c379a000000000000000000000000000000000000000000000000000000000815260040161355b90615572565b60405180910390fd5b602c60003373ffffffffffffffffffffffffffffffffffffffff1673ffffffffffffffffffffffffffffffffffffffff16815260200190815260200160002060006003815260200190815260200160002060009054906101000a900460ff166136c2576001602c60003373ffffffffffffffffffffffffffffffffffffffff1673ffffffffffffffffffffffffffffffffffffffff16815260200190815260200160002060006003815260200190815260200160002060006101000a81548160ff021916908315150217905550600160009054906101000a900473ffffffffffffffffffffffffffffffffffffffff1673ffffffffffffffffffffffffffffffffffffffff1663158a49883360026040518363ffffffff1660e01b815260040161368f9291906153e8565b600060405180830381600087803b1580156136a957600080fd5b505af11580156136bd573d6000803e3d6000fd5b505050505b505050505050565b6000600260009054906101000a900473ffffffffffffffffffffffffffffffffffffffff1673ffffffffffffffffffffffffffffffffffffffff166370a08231336040518263ffffffff1660e01b81526004016137279190615352565b60206040518083038186803b15801561373f57600080fd5b505afa158015613753573d6000803e3d6000fd5b505050506040513d601f19601f820116820180604052506137779190810190614bc9565b116137b7576040517f08c379a00000000000000000000000000000000000000000000000000000000081526004016137ae90615612565b60405180910390fd5b602c60003373ffffffffffffffffffffffffffffffffffffffff1673ffffffffffffffffffffffffffffffffffffffff16815260200190815260200160002060006001815260200190815260200160002060009054906101000a900460ff16613ac5576001602c60003373ffffffffffffffffffffffffffffffffffffffff1673ffffffffffffffffffffffffffffffffffffffff16815260200190815260200160002060006001815260200190815260200160002060006101000a81548160ff021916908315150217905550600160009054906101000a900473ffffffffffffffffffffffffffffffffffffffff1673ffffffffffffffffffffffffffffffffffffffff1663158a49883360016040518363ffffffff1660e01b81526004016138e29291906153bf565b600060405180830381600087803b1580156138fc57600080fd5b505af1158015613910573d6000803e3d6000fd5b50505050600160009054906101000a900473ffffffffffffffffffffffffffffffffffffffff1673ffffffffffffffffffffffffffffffffffffffff1663158a49883360016040518363ffffffff1660e01b81526004016139729291906153bf565b600060405180830381600087803b15801561398c57600080fd5b505af11580156139a0573d6000803e3d6000fd5b50505050600160009054906101000a900473ffffffffffffffffffffffffffffffffffffffff1673ffffffffffffffffffffffffffffffffffffffff1663158a49883360016040518363ffffffff1660e01b8152600401613a029291906153bf565b600060405180830381600087803b158015613a1c57600080fd5b505af1158015613a30573d6000803e3d6000fd5b50505050600160009054906101000a900473ffffffffffffffffffffffffffffffffffffffff1673ffffffffffffffffffffffffffffffffffffffff1663158a49883360026040518363ffffffff1660e01b8152600401613a929291906153e8565b600060405180830381600087803b158015613aac57600080fd5b505af1158015613ac0573d6000803e3d6000fd5b505050505b565b602c60003373ffffffffffffffffffffffffffffffffffffffff1673ffffffffffffffffffffffffffffffffffffffff168152602001908152602001600020600080815260200190815260200160002060009054906101000a900460ff16613b64576040517f08c379a0000000000000000000000000000000000000000000000000000000008152600401613b5b90615652565b60405180910390fd5b6000600260009054906101000a900473ffffffffffffffffffffffffffffffffffffffff1673ffffffffffffffffffffffffffffffffffffffff1663dd62ed3e33602d60003373ffffffffffffffffffffffffffffffffffffffff1673ffffffffffffffffffffffffffffffffffffffff16815260200190815260200160002060009054906101000a900473ffffffffffffffffffffffffffffffffffffffff166040518363ffffffff1660e01b8152600401613c2292919061536d565b60206040518083038186803b158015613c3a57600080fd5b505afa158015613c4e573d6000803e3d6000fd5b505050506040513d601f19601f82011682018060405250613c729190810190614bc9565b11613cb2576040517f08c379a0000000000000000000000000000000000000000000000000000000008152600401613ca990615632565b60405180910390fd5b602c60003373ffffffffffffffffffffffffffffffffffffffff1673ffffffffffffffffffffffffffffffffffffffff16815260200190815260200160002060006004815260200190815260200160002060009054906101000a900460ff16613e10576001602c60003373ffffffffffffffffffffffffffffffffffffffff1673ffffffffffffffffffffffffffffffffffffffff16815260200190815260200160002060006004815260200190815260200160002060006101000a81548160ff021916908315150217905550600160009054906101000a900473ffffffffffffffffffffffffffffffffffffffff1673ffffffffffffffffffffffffffffffffffffffff1663158a49883360016040518363ffffffff1660e01b8152600401613ddd9291906153bf565b600060405180830381600087803b158015613df757600080fd5b505af1158015613e0b573d6000803e3d6000fd5b505050505b565b602c60003373ffffffffffffffffffffffffffffffffffffffff1673ffffffffffffffffffffffffffffffffffffffff168152602001908152602001600020600080815260200190815260200160002060009054906101000a900460ff16613eaf576040517f08c379a0000000000000000000000000000000000000000000000000000000008152600401613ea690615652565b60405180910390fd5b6000606490506000600260009054906101000a900473ffffffffffffffffffffffffffffffffffffffff1673ffffffffffffffffffffffffffffffffffffffff166370a08231602d60003373ffffffffffffffffffffffffffffffffffffffff1673ffffffffffffffffffffffffffffffffffffffff16815260200190815260200160002060009054906101000a900473ffffffffffffffffffffffffffffffffffffffff166040518263ffffffff1660e01b8152600401613f719190615337565b60206040518083038186803b158015613f8957600080fd5b505afa158015613f9d573d6000803e3d6000fd5b505050506040513d601f19601f82011682018060405250613fc19190810190614bc9565b90506000600260009054906101000a900473ffffffffffffffffffffffffffffffffffffffff1673ffffffffffffffffffffffffffffffffffffffff166370a08231306040518263ffffffff1660e01b81526004016140209190615352565b60206040518083038186803b15801561403857600080fd5b505afa15801561404c573d6000803e3d6000fd5b505050506040513d601f19601f820116820180604052506140709190810190614bc9565b90506000602d60003373ffffffffffffffffffffffffffffffffffffffff1673ffffffffffffffffffffffffffffffffffffffff16815260200190815260200160002060009054906101000a900473ffffffffffffffffffffffffffffffffffffffff1673ffffffffffffffffffffffffffffffffffffffff166319fa44cd6040518163ffffffff1660e01b8152600401602060405180830381600087803b15801561411b57600080fd5b505af115801561412f573d6000803e3d6000fd5b505050506040513d601f19601f820116820180604052506141539190810190614ae9565b9050600081905060008173ffffffffffffffffffffffffffffffffffffffff166370a08231306040518263ffffffff1660e01b81526004016141959190615352565b60206040518083038186803b1580156141ad57600080fd5b505afa1580156141c1573d6000803e3d6000fd5b505050506040513d601f19601f820116820180604052506141e59190810190614bc9565b905060008273ffffffffffffffffffffffffffffffffffffffff166318160ddd6040518163ffffffff1660e01b815260040160206040518083038186803b15801561422f57600080fd5b505afa158015614243573d6000803e3d6000fd5b505050506040513d601f19601f820116820180604052506142679190810190614bc9565b9050868510156142ac576040517f08c379a00000000000000000000000000000000000000000000000000000000081526004016142a3906155f2565b60405180910390fd5b600260009054906101000a900473ffffffffffffffffffffffffffffffffffffffff1673ffffffffffffffffffffffffffffffffffffffff166339509351602d60003373ffffffffffffffffffffffffffffffffffffffff1673ffffffffffffffffffffffffffffffffffffffff16815260200190815260200160002060009054906101000a900473ffffffffffffffffffffffffffffffffffffffff16896040518363ffffffff1660e01b8152600401614368929190615411565b602060405180830381600087803b15801561438257600080fd5b505af1158015614396573d6000803e3d6000fd5b505050506040513d601f19601f820116820180604052506143ba9190810190614b4e565b50602d60003373ffffffffffffffffffffffffffffffffffffffff1673ffffffffffffffffffffffffffffffffffffffff16815260200190815260200160002060009054906101000a900473ffffffffffffffffffffffffffffffffffffffff1673ffffffffffffffffffffffffffffffffffffffff1663dd49756e886040518263ffffffff1660e01b815260040161445391906156d2565b602060405180830381600087803b15801561446d57600080fd5b505af1158015614481573d6000803e3d6000fd5b505050506040513d601f19601f820116820180604052506144a59190810190614bc9565b506000600260009054906101000a900473ffffffffffffffffffffffffffffffffffffffff1673ffffffffffffffffffffffffffffffffffffffff166370a08231602d60003373ffffffffffffffffffffffffffffffffffffffff1673ffffffffffffffffffffffffffffffffffffffff16815260200190815260200160002060009054906101000a900473ffffffffffffffffffffffffffffffffffffffff166040518263ffffffff1660e01b81526004016145629190615337565b60206040518083038186803b15801561457a57600080fd5b505afa15801561458e573d6000803e3d6000fd5b505050506040513d601f19601f820116820180604052506145b29190810190614bc9565b90506000600260009054906101000a900473ffffffffffffffffffffffffffffffffffffffff1673ffffffffffffffffffffffffffffffffffffffff166370a08231306040518263ffffffff1660e01b81526004016146119190615352565b60206040518083038186803b15801561462957600080fd5b505afa15801561463d573d6000803e3d6000fd5b505050506040513d601f19601f820116820180604052506146619190810190614bc9565b905060008573ffffffffffffffffffffffffffffffffffffffff166370a08231306040518263ffffffff1660e01b815260040161469e9190615352565b60206040518083038186803b1580156146b657600080fd5b505afa1580156146ca573d6000803e3d6000fd5b505050506040513d601f19601f820116820180604052506146ee9190810190614bc9565b905060008673ffffffffffffffffffffffffffffffffffffffff166318160ddd6040518163ffffffff1660e01b815260040160206040518083038186803b15801561473857600080fd5b505afa15801561474c573d6000803e3d6000fd5b505050506040513d601f19601f820116820180604052506147709190810190614bc9565b90508a8a8503146147b6576040517f08c379a00000000000000000000000000000000000000000000000000000000081526004016147ad906154f2565b60405180910390fd5b8a838a03146147fa576040517f08c379a00000000000000000000000000000000000000000000000000000000081526004016147f1906154b2565b60405180910390fd5b8a8683031461483e576040517f08c379a0000000000000000000000000000000000000000000000000000000008152600401614835906155b2565b60405180910390fd5b8a85820314614882576040517f08c379a000000000000000000000000000000000000000000000000000000000815260040161487990615692565b60405180910390fd5b602c60003373ffffffffffffffffffffffffffffffffffffffff1673ffffffffffffffffffffffffffffffffffffffff16815260200190815260200160002060006008815260200190815260200160002060009054906101000a900460ff166149e0576001602c60003373ffffffffffffffffffffffffffffffffffffffff1673ffffffffffffffffffffffffffffffffffffffff16815260200190815260200160002060006008815260200190815260200160002060006101000a81548160ff021916908315150217905550600160009054906101000a900473ffffffffffffffffffffffffffffffffffffffff1673ffffffffffffffffffffffffffffffffffffffff1663158a49883360026040518363ffffffff1660e01b81526004016149ad9291906153e8565b600060405180830381600087803b1580156149c757600080fd5b505af11580156149db573d6000803e3d6000fd5b505050505b5050505050505050505050565b60006020528060005260406000206000915054906101000a900460ff1681565b602e6020528060005260406000206000915054906101000a900460ff1681565b600081359050614a3c81615841565b92915050565b600081519050614a5181615841565b92915050565b600081519050614a6681615858565b92915050565b600081359050614a7b8161586f565b92915050565b600081359050614a9081615886565b92915050565b600081359050614aa58161589d565b92915050565b600081519050614aba8161589d565b92915050565b600060208284031215614ad257600080fd5b6000614ae084828501614a2d565b91505092915050565b600060208284031215614afb57600080fd5b6000614b0984828501614a42565b91505092915050565b60008060408385031215614b2557600080fd5b6000614b3385828601614a2d565b9250506020614b4485828601614a96565b9150509250929050565b600060208284031215614b6057600080fd5b6000614b6e84828501614a57565b91505092915050565b600060208284031215614b8957600080fd5b6000614b9784828501614a6c565b91505092915050565b600060208284031215614bb257600080fd5b6000614bc084828501614a81565b91505092915050565b600060208284031215614bdb57600080fd5b6000614be984828501614aab565b91505092915050565b614bfb8161576d565b82525050565b614c0a81615709565b82525050565b614c198161571b565b82525050565b614c288161577f565b82525050565b614c37816157a3565b82525050565b614c46816157b5565b82525050565b614c55816157c7565b82525050565b6000614c66826156ed565b614c7081856156f8565b9350614c808185602086016157fd565b614c8981615830565b840191505092915050565b6000614ca1601e836156f8565b91507f4578657263696365536f6c7574696f6e206973206e6f74206d696e74657200006000830152602082019050919050565b6000614ce1602b836156f8565b91507f4576616c7561746f722068617320616e20696e636f727265637420616d6f756e60008301527f74206f6620746f6b656e730000000000000000000000000000000000000000006020830152604082019050919050565b6000614d47602f836156f8565b91507f4578657263696365536f6c7574696f6e45726332302077657265206e6f74206260008301527f75726e656420636f72726563746c7900000000000000000000000000000000006020830152604082019050919050565b6000614dad6032836156f8565b91507f4578657263696365536f6c7574696f6e2068617320616e20696e636f7272656360008301527f7420616d6f756e74206f6620746f6b656e7300000000000000000000000000006020830152604082019050919050565b6000614e136013836156f8565b91507f4576616c7561746f72206973206d696e746572000000000000000000000000006000830152602082019050919050565b6000614e53602e836156f8565b91507f4e6f20636c61696d61626c6520746f6b656e73206d696e74656420746f20457860008301527f657263696365536f6c7574696f6e0000000000000000000000000000000000006020830152604082019050919050565b6000614eb9602e836156f8565b91507f42616c616e6365206f662073656e646572206e6f74206b65707420696e20457860008301527f657263696365536f6c7574696f6e0000000000000000000000000000000000006020830152604082019050919050565b6000614f1f6024836156f8565b91507f546f6b656e73206c6566742068656c64206279204578657263696365536f6c7560008301527f74696f6e000000000000000000000000000000000000000000000000000000006020830152604082019050919050565b6000614f856039836156f8565b91507f4578657263696365536f6c7574696f6e207374696c6c20616c6c6f776564207460008301527f6f207370656e64206d73672e73656e64657220746f6b656e73000000000000006020830152604082019050919050565b6000614feb6044836156f8565b91507f42616c616e6365206f66204576616c7561746f72206e6f74206372656469746560008301527f6420636f72726563746c7920696e204578657263696365536f6c7574696f6e4560208301527f72633230000000000000000000000000000000000000000000000000000000006040830152606082019050919050565b6000615077601a836156f8565b91507f4576616c7561746f72207761732061626c6520746f206d696e740000000000006000830152602082019050919050565b60006150b76025836156f8565b91507f4576616c7561746f7220646f6573206e6f7420686f6c6420656e6f756768207460008301527f6f6b656e730000000000000000000000000000000000000000000000000000006020830152604082019050919050565b600061511d6014836156f8565b91507f53656e64657220686173206e6f20746f6b656e730000000000000000000000006000830152602082019050919050565b600061515d6036836156f8565b91507f4578657263696365536f6c7574696f6e206e6f20616c6c6f77656420746f207360008301527f70656e64206d73672e73656e64657220746f6b656e73000000000000000000006020830152604082019050919050565b60006151c36015836156f8565b91507f4e6f20736f6c7574696f6e207375626d697474656400000000000000000000006000830152602082019050919050565b6000615203602b836156f8565b91507f546f6b656e73207374696c6c206372656469746564204578657263696365536f60008301527f6c7574696f6e45726332300000000000000000000000000000000000000000006020830152604082019050919050565b6000615269602f836156f8565b91507f4578657263696365536f6c7574696f6e45726332302077657265206e6f74206d60008301527f696e74656420636f72726563746c7900000000000000000000000000000000006020830152604082019050919050565b60006152cf603f836156f8565b91507f42616c616e6365206f66204576616c7561746f72206e6f74206372656469746560008301527f6420636f72726563746c7920696e204578657263696365536f6c7574696f6e006020830152604082019050919050565b61533181615763565b82525050565b600060208201905061534c6000830184614c01565b92915050565b60006020820190506153676000830184614bf2565b92915050565b60006040820190506153826000830185614bf2565b61538f6020830184614c01565b9392505050565b60006040820190506153ab6000830185614bf2565b6153b86020830184614c2e565b9392505050565b60006040820190506153d46000830185614bf2565b6153e16020830184614c3d565b9392505050565b60006040820190506153fd6000830185614bf2565b61540a6020830184614c4c565b9392505050565b60006040820190506154266000830185614c01565b6154336020830184615328565b9392505050565b600060208201905061544f6000830184614c10565b92915050565b600060208201905061546a6000830184614c1f565b92915050565b6000602082019050818103600083015261548a8184614c5b565b905092915050565b600060208201905081810360008301526154ab81614c94565b9050919050565b600060208201905081810360008301526154cb81614cd4565b9050919050565b600060208201905081810360008301526154eb81614d3a565b9050919050565b6000602082019050818103600083015261550b81614da0565b9050919050565b6000602082019050818103600083015261552b81614e06565b9050919050565b6000602082019050818103600083015261554b81614e46565b9050919050565b6000602082019050818103600083015261556b81614eac565b9050919050565b6000602082019050818103600083015261558b81614f12565b9050919050565b600060208201905081810360008301526155ab81614f78565b9050919050565b600060208201905081810360008301526155cb81614fde565b9050919050565b600060208201905081810360008301526155eb8161506a565b9050919050565b6000602082019050818103600083015261560b816150aa565b9050919050565b6000602082019050818103600083015261562b81615110565b9050919050565b6000602082019050818103600083015261564b81615150565b9050919050565b6000602082019050818103600083015261566b816151b6565b9050919050565b6000602082019050818103600083015261568b816151f6565b9050919050565b600060208201905081810360008301526156ab8161525c565b9050919050565b600060208201905081810360008301526156cb816152c2565b9050919050565b60006020820190506156e76000830184615328565b92915050565b600081519050919050565b600082825260208201905092915050565b600061571482615743565b9050919050565b60008115159050919050565b6000819050919050565b600061573c82615709565b9050919050565b600073ffffffffffffffffffffffffffffffffffffffff82169050919050565b6000819050919050565b6000615778826157d9565b9050919050565b600061578a82615791565b9050919050565b600061579c82615743565b9050919050565b60006157ae82615763565b9050919050565b60006157c082615763565b9050919050565b60006157d282615763565b9050919050565b60006157e4826157eb565b9050919050565b60006157f682615743565b9050919050565b60005b8381101561581b578082015181840152602081019050615800565b8381111561582a576000848401525b50505050565b6000601f19601f8301169050919050565b61584a81615709565b811461585557600080fd5b50565b6158618161571b565b811461586c57600080fd5b50565b61587881615727565b811461588357600080fd5b50565b61588f81615731565b811461589a57600080fd5b50565b6158a681615763565b81146158b157600080fd5b5056fea264697066735822122066b9ae8570341719f271be35896cd0a47ae3499d17fbc0bfc591450e21730ad564736f6c63430006020033",
  "source": "pragma solidity ^0.6.0;\npragma experimental ABIEncoderV2;\n\nimport \"./ERC20TD.sol\";\nimport \"./ERC20Claimable.sol\";\nimport \"./IExerciceSolution.sol\";\nimport \"./IERC20Mintable.sol\";\n\ncontract Evaluator\n{\n\n    mapping(address => bool) public teachers;\n    ERC20TD TDERC20;\n    ERC20Claimable claimableERC20;\n\n    uint256[20] private randomSupplies;\n    string[20] private randomTickers;\n    uint public nextValueStoreRank;\n\n\n    mapping(address => mapping(uint256 => bool)) public exerciceProgression;\n    mapping(address => IExerciceSolution) public studentExerciceSolution;\n    mapping(address => bool) public hasBeenPaired;\n\n    event newRandomTickerAndSupply(string ticker, uint256 supply);\n    event constructedCorrectly(address erc20Address, address claimableERC20Address);\n    constructor(ERC20TD _TDERC20, ERC20Claimable _claimableERC20)\n    public\n    {\n        TDERC20 = _TDERC20;\n        claimableERC20 = _claimableERC20;\n        emit constructedCorrectly(address(TDERC20), address(claimableERC20));\n    }\n\n    fallback() external payable\n    {}\n\n    receive() external payable\n    {}\n\n    function ex1_claimedPoints()\n    public\n    {\n        // Check the user has some tokens\n        require(claimableERC20.balanceOf(msg.sender) > 0, \"Sender has no tokens\");\n\n        // Crediting points\n        if (!exerciceProgression[msg.sender][1])\n        {\n            exerciceProgression[msg.sender][1] = true;\n            TDERC20.distributeTokens(msg.sender, 1);\n            TDERC20.distributeTokens(msg.sender, 1);\n            TDERC20.distributeTokens(msg.sender, 1);\n            TDERC20.distributeTokens(msg.sender, 2);\n        }\n    }\n\n    function ex2_claimedFromContract()\n    public\n    {\n        // Checking a solution was submitted\n        require(exerciceProgression[msg.sender][0], \"No solution submitted\");\n\n        // Checking how many tokens ExerciceSolution holds\n        uint256 solutionInitBalance = claimableERC20.balanceOf(address(studentExerciceSolution[msg.sender]));\n\n        // Claiming tokens through ExerciceSolution\n        studentExerciceSolution[msg.sender].claimTokensOnBehalf();\n\n        // Verifying ExerciceSolution holds tokens\n        uint256 solutionEndBalance = claimableERC20.balanceOf(address(studentExerciceSolution[msg.sender]));\n        require(solutionEndBalance - solutionInitBalance == claimableERC20.distributedAmount(), \"No claimable tokens minted to ExerciceSolution\");\n\n        // Verifying ExerciceSolution kept track of our balance\n        studentExerciceSolution[msg.sender].claimTokensOnBehalf();\n        require(studentExerciceSolution[msg.sender].tokensInCustody(address(this)) == 2 * claimableERC20.distributedAmount(), \"Balance of sender not kept in ExerciceSolution\");\n\n\n        // Crediting points\n        if (!exerciceProgression[msg.sender][2])\n        {\n            exerciceProgression[msg.sender][2] = true;\n            TDERC20.distributeTokens(msg.sender, 2);\n        }\n    }\n\n    function ex3_withdrawFromContract()\n    public\n    {\n        // Checking a solution was submitted\n        require(exerciceProgression[msg.sender][0], \"No solution submitted\");\n\n        // Checking how many tokens ExerciceSolution and Evaluator hold\n        uint256 solutionInitBalance = claimableERC20.balanceOf(address(studentExerciceSolution[msg.sender]));\n        uint256 selfInitBalance = claimableERC20.balanceOf(address(this));\n        uint256 amountToWithdraw = studentExerciceSolution[msg.sender].tokensInCustody(address(this));\n\n        // Withdraw tokens through ExerciceSolution\n        studentExerciceSolution[msg.sender].withdrawTokens(amountToWithdraw);\n\n        // Verifying tokens where withdrew correctly\n        uint256 solutionEndBalance = claimableERC20.balanceOf(address(studentExerciceSolution[msg.sender]));\n        uint256 selfEndBalance = claimableERC20.balanceOf(address(this));\n        uint256 amountLeft = studentExerciceSolution[msg.sender].tokensInCustody(address(this));\n\n        require(solutionInitBalance - solutionEndBalance == amountToWithdraw, \"ExerciceSolution has an incorrect amount of tokens\");\n        require(selfEndBalance - selfInitBalance == amountToWithdraw, \"Evaluator has an incorrect amount of tokens\");\n        require(amountLeft == 0, \"Tokens left held by ExerciceSolution\");\n\n        // Crediting points\n        if (!exerciceProgression[msg.sender][3])\n        {\n            exerciceProgression[msg.sender][3] = true;\n            TDERC20.distributeTokens(msg.sender, 2);\n        }\n    }\n\n    function ex4_approvedExerciceSolution()\n    public\n    {\n        // Checking a solution was submitted\n        require(exerciceProgression[msg.sender][0], \"No solution submitted\");\n\n        require(claimableERC20.allowance(msg.sender, address(studentExerciceSolution[msg.sender])) > 0, \"ExerciceSolution no allowed to spend msg.sender tokens\");\n\n        // Crediting points\n        if (!exerciceProgression[msg.sender][4])\n        {\n            exerciceProgression[msg.sender][4] = true;\n            TDERC20.distributeTokens(msg.sender, 1);\n        }\n    }\n\n    function ex5_revokedExerciceSolution()\n    public\n    {\n        // Checking a solution was submitted\n        require(exerciceProgression[msg.sender][0], \"No solution submitted\");\n\n        require(claimableERC20.allowance(msg.sender, address(studentExerciceSolution[msg.sender])) == 0, \"ExerciceSolution still allowed to spend msg.sender tokens\");\n\n        // Crediting points\n        if (!exerciceProgression[msg.sender][5])\n        {\n            exerciceProgression[msg.sender][5] = true;\n            TDERC20.distributeTokens(msg.sender, 1);\n        }\n    }\n\n    function ex6_depositTokens()\n    public\n    {\n        // Checking a solution was submitted\n        require(exerciceProgression[msg.sender][0], \"No solution submitted\");\n\n        uint256 amountToDeposit = 100;\n\n        // Checking how many tokens ExerciceSolution and Evaluator hold\n        uint256 solutionInitBalance = claimableERC20.balanceOf(address(studentExerciceSolution[msg.sender]));\n        uint256 selfInitBalance = claimableERC20.balanceOf(address(this));\n        uint256 amountDeposited = studentExerciceSolution[msg.sender].tokensInCustody(address(this));\n        require(selfInitBalance >= amountToDeposit, \"Evaluator does not hold enough tokens\");\n\n        // Approve student solution to manipulate our tokens\n        claimableERC20.increaseAllowance(address(studentExerciceSolution[msg.sender]), amountToDeposit);\n\n        // Deposit tokens in student contract\n        studentExerciceSolution[msg.sender].depositTokens(amountToDeposit);\n\n        // Check balances are correct\n        uint256 solutionEndBalance = claimableERC20.balanceOf(address(studentExerciceSolution[msg.sender]));\n        uint256 selfEndBalance = claimableERC20.balanceOf(address(this));\n        uint256 amountLeft = studentExerciceSolution[msg.sender].tokensInCustody(address(this));\n\n        require(solutionEndBalance - solutionInitBalance == amountToDeposit, \"ExerciceSolution has an incorrect amount of tokens\");\n        require(selfInitBalance - selfEndBalance == amountToDeposit, \"Evaluator has an incorrect amount of tokens\");\n        require(amountLeft - amountDeposited == amountToDeposit, \"Balance of Evaluator not credited correctly in ExerciceSolution\");\n\n\n        // Crediting points\n        if (!exerciceProgression[msg.sender][6])\n        {\n            exerciceProgression[msg.sender][6] = true;\n            TDERC20.distributeTokens(msg.sender, 2);\n        }\n    }\n\n    function ex7_createERC20()\n    public\n    {\n        // Checking a solution was submitted\n        require(exerciceProgression[msg.sender][0], \"No solution submitted\");\n\n        // Get ExerciceSolutionERC20 address\n        address exerciceSolutionERC20 = studentExerciceSolution[msg.sender].getERC20DepositAddress();\n        IERC20Mintable ExerciceSolutionERC20 = IERC20Mintable(exerciceSolutionERC20);\n\n        // Check that ExerciceSolution is a minter to ExerciceSolutionERC20\n        // Check that we are not a minter to ExerciceSolutionERC20\n        require(ExerciceSolutionERC20.isMinter(address(studentExerciceSolution[msg.sender])), \"ExerciceSolution is not minter\");\n        require(!ExerciceSolutionERC20.isMinter(address(this)), \"Evaluator is minter\");\n\n        // Check that we can not mint ExerciceSolutionERC20 tokens\n        bool wasMintAccepted = false;\n        try ExerciceSolutionERC20.mint(address(this), 10000)\n        {\n            wasMintAccepted = true;\n        }\n        catch\n        {\n            // This is executed in case revert() was used.\n            wasMintAccepted = false;\n        }\n\n        require(!wasMintAccepted, \"Evaluator was able to mint\");\n\n        // Crediting points\n        if (!exerciceProgression[msg.sender][7])\n        {\n            exerciceProgression[msg.sender][7] = true;\n            TDERC20.distributeTokens(msg.sender, 2);\n        }\n    }\n\n    function ex8_depositAndMint()\n    public\n    {\n        // Checking a solution was submitted\n        require(exerciceProgression[msg.sender][0], \"No solution submitted\");\n\n        uint256 amountToDeposit = 100;\n\n        // Checking how many tokens ExerciceSolution and Evaluator hold\n        uint256 solutionInitBalance = claimableERC20.balanceOf(address(studentExerciceSolution[msg.sender]));\n        uint256 selfInitBalance = claimableERC20.balanceOf(address(this));\n        address exerciceSolutionERC20 = studentExerciceSolution[msg.sender].getERC20DepositAddress();\n        IERC20Mintable ExerciceSolutionERC20 = IERC20Mintable(exerciceSolutionERC20);\n        uint256 amountDeposited = ExerciceSolutionERC20.balanceOf(address(this));\n        uint256 initWrappedTotalSupply = ExerciceSolutionERC20.totalSupply();\n        require(selfInitBalance >= amountToDeposit, \"Evaluator does not hold enough tokens\");\n\n        // Approve student solution to manipulate our tokens\n        claimableERC20.increaseAllowance(address(studentExerciceSolution[msg.sender]), amountToDeposit);\n\n        // Deposit tokens in student contract\n        studentExerciceSolution[msg.sender].depositTokens(amountToDeposit);\n\n        // Check balances are correct\n        uint256 solutionEndBalance = claimableERC20.balanceOf(address(studentExerciceSolution[msg.sender]));\n        uint256 selfEndBalance = claimableERC20.balanceOf(address(this));\n        uint256 amountLeft = ExerciceSolutionERC20.balanceOf(address(this));\n        uint256 endWrappedTotalSupply = ExerciceSolutionERC20.totalSupply();\n\n        require(solutionEndBalance - solutionInitBalance == amountToDeposit, \"ExerciceSolution has an incorrect amount of tokens\");\n        require(selfInitBalance - selfEndBalance == amountToDeposit, \"Evaluator has an incorrect amount of tokens\");\n        require(amountLeft - amountDeposited == amountToDeposit, \"Balance of Evaluator not credited correctly in ExerciceSolutionErc20\");\n        require(endWrappedTotalSupply - initWrappedTotalSupply == amountToDeposit, \"ExerciceSolutionErc20 were not minted correctly\");\n\n        // Crediting points\n        if (!exerciceProgression[msg.sender][8])\n        {\n            exerciceProgression[msg.sender][8] = true;\n            TDERC20.distributeTokens(msg.sender, 2);\n        }\n    }\n\n    function ex9_withdrawAndBurn()\n    public\n    {\n        // Checking a solution was submitted\n        require(exerciceProgression[msg.sender][0], \"No solution submitted\");\n\n        // Checking how many tokens ExerciceSolution and Evaluator hold\n        uint256 solutionInitBalance = claimableERC20.balanceOf(address(studentExerciceSolution[msg.sender]));\n        uint256 selfInitBalance = claimableERC20.balanceOf(address(this));\n        address exerciceSolutionERC20 = studentExerciceSolution[msg.sender].getERC20DepositAddress();\n        IERC20Mintable ExerciceSolutionERC20 = IERC20Mintable(exerciceSolutionERC20);\n        uint256 amountToWithdraw = ExerciceSolutionERC20.balanceOf(address(this));\n        uint256 initWrappedTotalSupply = ExerciceSolutionERC20.totalSupply();\n\n        // Withdraw tokens through ExerciceSolution\n        studentExerciceSolution[msg.sender].withdrawTokens(amountToWithdraw);\n\n        // Verifying tokens where withdrew correctly\n        uint256 solutionEndBalance = claimableERC20.balanceOf(address(studentExerciceSolution[msg.sender]));\n        uint256 selfEndBalance = claimableERC20.balanceOf(address(this));\n        uint256 amountLeft = ExerciceSolutionERC20.balanceOf(address(this));\n        uint256 endWrappedTotalSupply = ExerciceSolutionERC20.totalSupply();\n\n        require(solutionInitBalance - solutionEndBalance == amountToWithdraw, \"ExerciceSolution has an incorrect amount of tokens\");\n        require(selfEndBalance - selfInitBalance == amountToWithdraw, \"Evaluator has an incorrect amount of tokens\");\n        require(amountLeft == 0, \"Tokens still credited ExerciceSolutionErc20\");\n        require(initWrappedTotalSupply - endWrappedTotalSupply == amountToWithdraw, \"ExerciceSolutionErc20 were not burned correctly\");\n\n        // Crediting points\n        if (!exerciceProgression[msg.sender][9])\n        {\n            exerciceProgression[msg.sender][9] = true;\n            TDERC20.distributeTokens(msg.sender, 2);\n        }\n    }\n\n\n    /* Internal functions and modifiers */\n    function submitExercice(IExerciceSolution studentExercice)\n    public\n    {\n        // Checking this contract was not used by another group before\n        require(!hasBeenPaired[address(studentExercice)]);\n\n        // Assigning passed ERC20 as student ERC20\n        studentExerciceSolution[msg.sender] = studentExercice;\n        hasBeenPaired[address(studentExercice)] = true;\n\n        if (!exerciceProgression[msg.sender][0])\n        {\n            exerciceProgression[msg.sender][0] = true;\n            TDERC20.distributeTokens(msg.sender, 1);\n        }\n    }\n\n    modifier onlyTeachers()\n    {\n\n        require(TDERC20.teachers(msg.sender));\n        _;\n    }\n\n    function _compareStrings(string memory a, string memory b)\n    internal\n    pure\n    returns (bool)\n    {\n        return (keccak256(abi.encodePacked((a))) == keccak256(abi.encodePacked((b))));\n    }\n\n    function bytes32ToString(bytes32 _bytes32)\n    public\n    pure returns (string memory)\n    {\n        uint8 i = 0;\n        while (i < 32 && _bytes32[i] != 0) {\n            i++;\n        }\n        bytes memory bytesArray = new bytes(i);\n        for (i = 0; i < 32 && _bytes32[i] != 0; i++) {\n            bytesArray[i] = _bytes32[i];\n        }\n        return string(bytesArray);\n    }\n\n}\n",
  "sourcePath": "/Users/antoinerevel/Documents/Cours/ESILV A4/Decentralized Finance/TD01 ERC20-102/erc20-102/contracts/Evaluator.sol",
  "compiler": {
    "name": "solc",
    "version": "0.6.2+commit.bacdbe57.Emscripten.clang"
  },
  "schemaVersion": "3.4.10",
  "updatedAt": "2023-01-23T11:09:41.940Z",
  "networkType": "ethereum",
  "devdoc": {
    "methods": {}
  },
  "userdoc": {
    "methods": {}
  }
}